{"abi":[{"type":"constructor","inputs":[],"stateMutability":"nonpayable"},{"type":"fallback","stateMutability":"payable"},{"type":"receive","stateMutability":"payable"},{"type":"function","name":"acceptOffer","inputs":[{"name":"tokenId","type":"uint256","internalType":"uint256"},{"name":"offeror","type":"address","internalType":"address"}],"outputs":[],"stateMutability":"nonpayable"},{"type":"function","name":"approve","inputs":[{"name":"to","type":"address","internalType":"address"},{"name":"tokenId","type":"uint256","internalType":"uint256"}],"outputs":[],"stateMutability":"nonpayable"},{"type":"function","name":"balanceOf","inputs":[{"name":"owner","type":"address","internalType":"address"}],"outputs":[{"name":"","type":"uint256","internalType":"uint256"}],"stateMutability":"view"},{"type":"function","name":"getApproved","inputs":[{"name":"tokenId","type":"uint256","internalType":"uint256"}],"outputs":[{"name":"","type":"address","internalType":"address"}],"stateMutability":"view"},{"type":"function","name":"getScores","inputs":[{"name":"tokenId","type":"uint256","internalType":"uint256"}],"outputs":[{"name":"originality","type":"uint8","internalType":"uint8"},{"name":"feasibility","type":"uint8","internalType":"uint8"},{"name":"marketDemand","type":"uint8","internalType":"uint8"},{"name":"complexity","type":"uint8","internalType":"uint8"},{"name":"completeness","type":"uint8","internalType":"uint8"},{"name":"technologyStack","type":"uint8","internalType":"uint8"},{"name":"softwareRequirements","type":"uint8","internalType":"uint8"},{"name":"algorithms","type":"uint8","internalType":"uint8"}],"stateMutability":"view"},{"type":"function","name":"isApprovedForAll","inputs":[{"name":"owner","type":"address","internalType":"address"},{"name":"operator","type":"address","internalType":"address"}],"outputs":[{"name":"","type":"bool","internalType":"bool"}],"stateMutability":"view"},{"type":"function","name":"mintIdea","inputs":[{"name":"to","type":"address","internalType":"address"},{"name":"tokenURI_","type":"string","internalType":"string"},{"name":"_ideaScores","type":"tuple","internalType":"struct IdeaMarketplace.Score","components":[{"name":"originality","type":"uint8","internalType":"uint8"},{"name":"feasibility","type":"uint8","internalType":"uint8"},{"name":"marketDemand","type":"uint8","internalType":"uint8"},{"name":"complexity","type":"uint8","internalType":"uint8"},{"name":"completeness","type":"uint8","internalType":"uint8"},{"name":"technologyStack","type":"uint8","internalType":"uint8"},{"name":"softwareRequirements","type":"uint8","internalType":"uint8"},{"name":"algorithms","type":"uint8","internalType":"uint8"}]}],"outputs":[],"stateMutability":"nonpayable"},{"type":"function","name":"name","inputs":[],"outputs":[{"name":"","type":"string","internalType":"string"}],"stateMutability":"view"},{"type":"function","name":"offers","inputs":[{"name":"","type":"uint256","internalType":"uint256"},{"name":"","type":"address","internalType":"address"}],"outputs":[{"name":"","type":"uint256","internalType":"uint256"}],"stateMutability":"view"},{"type":"function","name":"owner","inputs":[],"outputs":[{"name":"","type":"address","internalType":"address"}],"stateMutability":"view"},{"type":"function","name":"ownerOf","inputs":[{"name":"tokenId","type":"uint256","internalType":"uint256"}],"outputs":[{"name":"","type":"address","internalType":"address"}],"stateMutability":"view"},{"type":"function","name":"placeOffer","inputs":[{"name":"tokenId","type":"uint256","internalType":"uint256"}],"outputs":[],"stateMutability":"payable"},{"type":"function","name":"renounceOwnership","inputs":[],"outputs":[],"stateMutability":"nonpayable"},{"type":"function","name":"royaltyInfo","inputs":[{"name":"tokenId","type":"uint256","internalType":"uint256"},{"name":"salePrice","type":"uint256","internalType":"uint256"}],"outputs":[{"name":"receiver","type":"address","internalType":"address"},{"name":"amount","type":"uint256","internalType":"uint256"}],"stateMutability":"view"},{"type":"function","name":"safeTransferFrom","inputs":[{"name":"from","type":"address","internalType":"address"},{"name":"to","type":"address","internalType":"address"},{"name":"tokenId","type":"uint256","internalType":"uint256"}],"outputs":[],"stateMutability":"nonpayable"},{"type":"function","name":"safeTransferFrom","inputs":[{"name":"from","type":"address","internalType":"address"},{"name":"to","type":"address","internalType":"address"},{"name":"tokenId","type":"uint256","internalType":"uint256"},{"name":"data","type":"bytes","internalType":"bytes"}],"outputs":[],"stateMutability":"nonpayable"},{"type":"function","name":"setApprovalForAll","inputs":[{"name":"operator","type":"address","internalType":"address"},{"name":"approved","type":"bool","internalType":"bool"}],"outputs":[],"stateMutability":"nonpayable"},{"type":"function","name":"setRoyalty","inputs":[{"name":"tokenId","type":"uint256","internalType":"uint256"},{"name":"receiver","type":"address","internalType":"address"},{"name":"feeNumerator","type":"uint96","internalType":"uint96"}],"outputs":[],"stateMutability":"nonpayable"},{"type":"function","name":"supportsInterface","inputs":[{"name":"interfaceId","type":"bytes4","internalType":"bytes4"}],"outputs":[{"name":"","type":"bool","internalType":"bool"}],"stateMutability":"view"},{"type":"function","name":"symbol","inputs":[],"outputs":[{"name":"","type":"string","internalType":"string"}],"stateMutability":"view"},{"type":"function","name":"tokenURI","inputs":[{"name":"tokenId","type":"uint256","internalType":"uint256"}],"outputs":[{"name":"","type":"string","internalType":"string"}],"stateMutability":"view"},{"type":"function","name":"transferFrom","inputs":[{"name":"from","type":"address","internalType":"address"},{"name":"to","type":"address","internalType":"address"},{"name":"tokenId","type":"uint256","internalType":"uint256"}],"outputs":[],"stateMutability":"nonpayable"},{"type":"function","name":"transferOwnership","inputs":[{"name":"newOwner","type":"address","internalType":"address"}],"outputs":[],"stateMutability":"nonpayable"},{"type":"function","name":"withdrawOffer","inputs":[{"name":"tokenId","type":"uint256","internalType":"uint256"}],"outputs":[],"stateMutability":"nonpayable"},{"type":"event","name":"Approval","inputs":[{"name":"owner","type":"address","indexed":true,"internalType":"address"},{"name":"approved","type":"address","indexed":true,"internalType":"address"},{"name":"tokenId","type":"uint256","indexed":true,"internalType":"uint256"}],"anonymous":false},{"type":"event","name":"ApprovalForAll","inputs":[{"name":"owner","type":"address","indexed":true,"internalType":"address"},{"name":"operator","type":"address","indexed":true,"internalType":"address"},{"name":"approved","type":"bool","indexed":false,"internalType":"bool"}],"anonymous":false},{"type":"event","name":"BatchMetadataUpdate","inputs":[{"name":"_fromTokenId","type":"uint256","indexed":false,"internalType":"uint256"},{"name":"_toTokenId","type":"uint256","indexed":false,"internalType":"uint256"}],"anonymous":false},{"type":"event","name":"IdeaMinted","inputs":[{"name":"tokenId","type":"uint256","indexed":true,"internalType":"uint256"},{"name":"creator","type":"address","indexed":true,"internalType":"address"},{"name":"metadataURI","type":"string","indexed":false,"internalType":"string"}],"anonymous":false},{"type":"event","name":"MetadataUpdate","inputs":[{"name":"_tokenId","type":"uint256","indexed":false,"internalType":"uint256"}],"anonymous":false},{"type":"event","name":"OfferAccepted","inputs":[{"name":"tokenId","type":"uint256","indexed":true,"internalType":"uint256"},{"name":"seller","type":"address","indexed":true,"internalType":"address"},{"name":"buyer","type":"address","indexed":true,"internalType":"address"},{"name":"salePrice","type":"uint256","indexed":false,"internalType":"uint256"}],"anonymous":false},{"type":"event","name":"OfferPlaced","inputs":[{"name":"tokenId","type":"uint256","indexed":true,"internalType":"uint256"},{"name":"offeror","type":"address","indexed":true,"internalType":"address"},{"name":"amount","type":"uint256","indexed":false,"internalType":"uint256"}],"anonymous":false},{"type":"event","name":"OfferWithdrawn","inputs":[{"name":"tokenId","type":"uint256","indexed":true,"internalType":"uint256"},{"name":"offeror","type":"address","indexed":true,"internalType":"address"}],"anonymous":false},{"type":"event","name":"OwnershipTransferred","inputs":[{"name":"previousOwner","type":"address","indexed":true,"internalType":"address"},{"name":"newOwner","type":"address","indexed":true,"internalType":"address"}],"anonymous":false},{"type":"event","name":"ScoresSet","inputs":[{"name":"tokenId","type":"uint256","indexed":true,"internalType":"uint256"},{"name":"originality","type":"uint8","indexed":false,"internalType":"uint8"},{"name":"feasibility","type":"uint8","indexed":false,"internalType":"uint8"},{"name":"marketDemand","type":"uint8","indexed":false,"internalType":"uint8"},{"name":"complexity","type":"uint8","indexed":false,"internalType":"uint8"},{"name":"completeness","type":"uint8","indexed":false,"internalType":"uint8"},{"name":"technologyStack","type":"uint8","indexed":false,"internalType":"uint8"},{"name":"softwareRequirements","type":"uint8","indexed":false,"internalType":"uint8"},{"name":"algorithms","type":"uint8","indexed":false,"internalType":"uint8"}],"anonymous":false},{"type":"event","name":"Transfer","inputs":[{"name":"from","type":"address","indexed":true,"internalType":"address"},{"name":"to","type":"address","indexed":true,"internalType":"address"},{"name":"tokenId","type":"uint256","indexed":true,"internalType":"uint256"}],"anonymous":false},{"type":"error","name":"ERC2981InvalidDefaultRoyalty","inputs":[{"name":"numerator","type":"uint256","internalType":"uint256"},{"name":"denominator","type":"uint256","internalType":"uint256"}]},{"type":"error","name":"ERC2981InvalidDefaultRoyaltyReceiver","inputs":[{"name":"receiver","type":"address","internalType":"address"}]},{"type":"error","name":"ERC2981InvalidTokenRoyalty","inputs":[{"name":"tokenId","type":"uint256","internalType":"uint256"},{"name":"numerator","type":"uint256","internalType":"uint256"},{"name":"denominator","type":"uint256","internalType":"uint256"}]},{"type":"error","name":"ERC2981InvalidTokenRoyaltyReceiver","inputs":[{"name":"tokenId","type":"uint256","internalType":"uint256"},{"name":"receiver","type":"address","internalType":"address"}]},{"type":"error","name":"ERC721IncorrectOwner","inputs":[{"name":"sender","type":"address","internalType":"address"},{"name":"tokenId","type":"uint256","internalType":"uint256"},{"name":"owner","type":"address","internalType":"address"}]},{"type":"error","name":"ERC721InsufficientApproval","inputs":[{"name":"operator","type":"address","internalType":"address"},{"name":"tokenId","type":"uint256","internalType":"uint256"}]},{"type":"error","name":"ERC721InvalidApprover","inputs":[{"name":"approver","type":"address","internalType":"address"}]},{"type":"error","name":"ERC721InvalidOperator","inputs":[{"name":"operator","type":"address","internalType":"address"}]},{"type":"error","name":"ERC721InvalidOwner","inputs":[{"name":"owner","type":"address","internalType":"address"}]},{"type":"error","name":"ERC721InvalidReceiver","inputs":[{"name":"receiver","type":"address","internalType":"address"}]},{"type":"error","name":"ERC721InvalidSender","inputs":[{"name":"sender","type":"address","internalType":"address"}]},{"type":"error","name":"ERC721NonexistentToken","inputs":[{"name":"tokenId","type":"uint256","internalType":"uint256"}]},{"type":"error","name":"OwnableInvalidOwner","inputs":[{"name":"owner","type":"address","internalType":"address"}]},{"type":"error","name":"OwnableUnauthorizedAccount","inputs":[{"name":"account","type":"address","internalType":"address"}]}],"bytecode":{"object":"0x608060405234801561000f575f5ffd5b5033604051806040016040528060078152602001661259195853919560ca1b815250604051806040016040528060048152602001634944454160e01b815250815f908161005c9190610191565b5060016100698282610191565b5050506001600160a01b03811661009957604051631e4fbdf760e01b81525f600482015260240160405180910390fd5b6100a2816100a8565b5061024b565b600980546001600160a01b038381166001600160a01b0319831681179093556040519116919082907f8be0079c531659141344cd1fd0a4f28419497f9722a3daafe3b4186f6b6457e0905f90a35050565b634e487b7160e01b5f52604160045260245ffd5b600181811c9082168061012157607f821691505b60208210810361013f57634e487b7160e01b5f52602260045260245ffd5b50919050565b601f82111561018c57805f5260205f20601f840160051c8101602085101561016a5750805b601f840160051c820191505b81811015610189575f8155600101610176565b50505b505050565b81516001600160401b038111156101aa576101aa6100f9565b6101be816101b8845461010d565b84610145565b6020601f8211600181146101f0575f83156101d95750848201515b5f19600385901b1c1916600184901b178455610189565b5f84815260208120601f198516915b8281101561021f57878501518255602094850194600190920191016101ff565b508482101561023c57868401515f19600387901b60f8161c191681555b50505050600190811b01905550565b6125c0806102585f395ff3fe608060405260043610610141575f3560e01c806380c8d690116100af578063b88d4fde1161006b578063b88d4fde14610461578063c4fb8cee14610480578063c87b56dd1461049f578063e985e9c5146104be578063ebdfbce5146104dd578063f2fde38b1461051357005b806380c8d690146103b45780638610f045146103d35780638da5cb5b146103f2578063918d407d1461040f57806395d89b411461042e578063a22cb4651461044257005b80632474659a116100fe5780632474659a146102e45780632a55205a146102f757806342842e0e146103355780636352211e1461035457806370a0823114610373578063715018a6146103a057005b806301ffc9a71461014357806304527d901461017757806306fdde031461024e578063081812fc1461026f578063095ea7b3146102a657806323b872dd146102c5575b005b34801561014e575f5ffd5b5061016261015d366004611f32565b610532565b60405190151581526020015b60405180910390f35b348015610182575f5ffd5b5061023a610191366004611f4d565b5f908152600c602090815260409182902082516101008082018552915460ff80821680845293820481169483018590526201000082048116958301869052630100000082048116606084018190526401000000008304821660808501819052650100000000008404831660a0860181905266010000000000008504841660c0870181905267010000000000000090950490931660e0909501859052949795969590949391929190565b60405161016e989796959493929190611f64565b348015610259575f5ffd5b50610262610542565b60405161016e9190611fd6565b34801561027a575f5ffd5b5061028e610289366004611f4d565b6105d1565b6040516001600160a01b03909116815260200161016e565b3480156102b1575f5ffd5b506101416102c0366004612003565b6105f8565b3480156102d0575f5ffd5b506101416102df36600461202b565b610607565b6101416102f2366004611f4d565b610695565b348015610302575f5ffd5b50610316610311366004612065565b6107e4565b604080516001600160a01b03909316835260208301919091520161016e565b348015610340575f5ffd5b5061014161034f36600461202b565b610867565b34801561035f575f5ffd5b5061028e61036e366004611f4d565b610886565b34801561037e575f5ffd5b5061039261038d366004612085565b610890565b60405190815260200161016e565b3480156103ab575f5ffd5b506101416108d5565b3480156103bf575f5ffd5b506101416103ce36600461209e565b6108e8565b3480156103de575f5ffd5b506101416103ed366004611f4d565b610943565b3480156103fd575f5ffd5b506009546001600160a01b031661028e565b34801561041a575f5ffd5b506101416104293660046120e6565b610a73565b348015610439575f5ffd5b50610262610d30565b34801561044d575f5ffd5b5061014161045c366004612110565b610d3f565b34801561046c575f5ffd5b5061014161047b36600461215d565b610d4a565b34801561048b575f5ffd5b5061014161049a36600461223a565b610d62565b3480156104aa575f5ffd5b506102626104b9366004611f4d565b610ec8565b3480156104c9575f5ffd5b506101626104d83660046122d4565b610fd3565b3480156104e8575f5ffd5b506103926104f73660046120e6565b600b60209081525f928352604080842090915290825290205481565b34801561051e575f5ffd5b5061014161052d366004612085565b611000565b5f61053c8261103d565b92915050565b60605f8054610550906122fc565b80601f016020809104026020016040519081016040528092919081815260200182805461057c906122fc565b80156105c75780601f1061059e576101008083540402835291602001916105c7565b820191905f5260205f20905b8154815290600101906020018083116105aa57829003601f168201915b5050505050905090565b5f6105db82611061565b505f828152600460205260409020546001600160a01b031661053c565b610603828233611099565b5050565b6001600160a01b03821661063557604051633250574960e11b81525f60048201526024015b60405180910390fd5b5f6106418383336110a6565b9050836001600160a01b0316816001600160a01b03161461068f576040516364283d7b60e01b81526001600160a01b038086166004830152602482018490528216604482015260640161062c565b50505050565b5f61069f82610886565b6001600160a01b0316036106ec5760405162461bcd60e51b8152602060048201526014602482015273151bdad95b88191bd95cc81b9bdd08195e1a5cdd60621b604482015260640161062c565b5f341161072f5760405162461bcd60e51b815260206004820152601160248201527004f66666572206d757374206265203e203607c1b604482015260640161062c565b61073881610886565b6001600160a01b0316330361078f5760405162461bcd60e51b815260206004820152601960248201527f43616e6e6f74206f66666572206f6e206f776e20746f6b656e00000000000000604482015260640161062c565b5f818152600b6020908152604080832033808552908352928190203490819055905190815283917fd294afec9d7ab02d1bc3b945a2e833190e9ac8c221c99a27a16afab5cf59e928910160405180910390a350565b5f82815260086020526040812080548291906001600160a01b03811690600160a01b90046001600160601b0316816108375750506007546001600160a01b03811690600160a01b90046001600160601b03165b5f61271061084e6001600160601b03841689612348565b610858919061235f565b92989297509195505050505050565b61088183838360405180602001604052805f815250610d4a565b505050565b5f61053c82611061565b5f6001600160a01b0382166108ba576040516322718ad960e21b81525f600482015260240161062c565b506001600160a01b03165f9081526003602052604090205490565b6108dd611198565b6108e65f6111c5565b565b336108f284610886565b6001600160a01b0316146109385760405162461bcd60e51b815260206004820152600d60248201526c2737ba1027232a1037bbb732b960991b604482015260640161062c565b610881838383611216565b5f818152600b60209081526040808320338452909152902054806109a05760405162461bcd60e51b81526020600482015260146024820152734e6f206f6666657220746f20776974686472617760601b604482015260640161062c565b5f828152600b602090815260408083203380855292528083208390555183908381818185875af1925050503d805f81146109f5576040519150601f19603f3d011682016040523d82523d5f602084013e6109fa565b606091505b5050905080610a425760405162461bcd60e51b81526020600482015260146024820152732330b4b632b2103a379039b2b7321022ba3432b960611b604482015260640161062c565b604051339084907fe6f4d8e39c4a3ade2f3812a17eb8f658c1cc293ceee263362516f01750847ac8905f90a3505050565b33610a7d83610886565b6001600160a01b031614610ad35760405162461bcd60e51b815260206004820152601960248201527f43616c6c6572206973206e6f7420746f6b656e206f776e657200000000000000604482015260640161062c565b5f828152600b602090815260408083206001600160a01b038516845290915290205480610b425760405162461bcd60e51b815260206004820152601a60248201527f4e6f206f666665722066726f6d20746869732061646472657373000000000000604482015260640161062c565b5f838152600b602090815260408083206001600160a01b0386168452909152812081905580610b7185846107e4565b9092509050828115801590610b8e57506001600160a01b03831615155b15610c3957610b9d828561237e565b90505f836001600160a01b0316836040515f6040518083038185875af1925050503d805f8114610be8576040519150601f19603f3d011682016040523d82523d5f602084013e610bed565b606091505b5050905080610c375760405162461bcd60e51b81526020600482015260166024820152754661696c656420746f2073656e6420726f79616c747960501b604482015260640161062c565b505b6040515f90339083908381818185875af1925050503d805f8114610c78576040519150601f19603f3d011682016040523d82523d5f602084013e610c7d565b606091505b5050905080610cce5760405162461bcd60e51b815260206004820152601e60248201527f4661696c656420746f2073656e6420457468657220746f2073656c6c65720000604482015260640161062c565b610cd93387896112d6565b856001600160a01b0316336001600160a01b0316887fc67f49229cab3f614ad390c12432e0e671552dcfd15e24ddc005cf5a01a0213588604051610d1f91815260200190565b60405180910390a450505050505050565b606060018054610550906122fc565b610603338383611383565b610d55848484610607565b61068f3385858585611421565b600a80546001600160801b03169081905f610d7c83612391565b91906101000a8154816001600160801b0302191690836001600160801b0316021790555050610dab8582611549565b610dea8185858080601f0160208091040260200160405190810160405280939291908181526020018383808284375f9201919091525061156292505050565b610df681866032611216565b610e7d81610e0760208501856123bb565b610e1760408601602087016123bb565b610e2760608701604088016123bb565b610e3760808801606089016123bb565b610e4760a0890160808a016123bb565b610e5760c08a0160a08b016123bb565b610e6760e08b0160c08c016123bb565b610e786101008c0160e08d016123bb565b6115b1565b846001600160a01b0316817f546a1f9ba985f54e9d70cf97c906e62398d5447a75217d819da0adff77f2cbda8686604051610eb99291906123db565b60405180910390a35050505050565b6060610ed382611061565b505f8281526006602052604081208054610eec906122fc565b80601f0160208091040260200160405190810160405280929190818152602001828054610f18906122fc565b8015610f635780601f10610f3a57610100808354040283529160200191610f63565b820191905f5260205f20905b815481529060010190602001808311610f4657829003601f168201915b505050505090505f610f7f60408051602081019091525f815290565b905080515f03610f90575092915050565b815115610fc2578082604051602001610faa929190612420565b60405160208183030381529060405292505050919050565b610fcb84611a91565b949350505050565b6001600160a01b039182165f90815260056020908152604080832093909416825291909152205460ff1690565b611008611198565b6001600160a01b03811661103157604051631e4fbdf760e01b81525f600482015260240161062c565b61103a816111c5565b50565b5f6001600160e01b0319821663152a902d60e11b148061053c575061053c82611b02565b5f818152600260205260408120546001600160a01b03168061053c57604051637e27328960e01b81526004810184905260240161062c565b6108818383836001611b26565b5f828152600260205260408120546001600160a01b03908116908316156110d2576110d2818486611c2a565b6001600160a01b0381161561110c576110ed5f855f5f611b26565b6001600160a01b0381165f90815260036020526040902080545f190190555b6001600160a01b0385161561113a576001600160a01b0385165f908152600360205260409020805460010190555b5f8481526002602052604080822080546001600160a01b0319166001600160a01b0389811691821790925591518793918516917fddf252ad1be2c89b69c2b068fc378daa952ba7f163c4a11628f55a4df523b3ef91a4949350505050565b6009546001600160a01b031633146108e65760405163118cdaa760e01b815233600482015260240161062c565b600980546001600160a01b038381166001600160a01b0319831681179093556040519116919082907f8be0079c531659141344cd1fd0a4f28419497f9722a3daafe3b4186f6b6457e0905f90a35050565b6127106001600160601b03821681101561125c5760405163dfd1fc1b60e01b8152600481018590526001600160601b03831660248201526044810182905260640161062c565b6001600160a01b03831661128c57604051634b4f842960e11b8152600481018590525f602482015260440161062c565b506040805180820182526001600160a01b0393841681526001600160601b0392831660208083019182525f968752600890529190942093519051909116600160a01b029116179055565b6001600160a01b0382166112ff57604051633250574960e11b81525f600482015260240161062c565b5f61130b83835f6110a6565b90506001600160a01b03811661133757604051637e27328960e01b81526004810183905260240161062c565b836001600160a01b0316816001600160a01b03161461068f576040516364283d7b60e01b81526001600160a01b038086166004830152602482018490528216604482015260640161062c565b6001600160a01b0382166113b557604051630b61174360e31b81526001600160a01b038316600482015260240161062c565b6001600160a01b038381165f81815260056020908152604080832094871680845294825291829020805460ff191686151590811790915591519182527f17307eab39ab6107e8899845ad3d59bd9653f200f220920489ca2b5937696c31910160405180910390a3505050565b6001600160a01b0383163b1561154257604051630a85bd0160e11b81526001600160a01b0384169063150b7a0290611463908890889087908790600401612434565b6020604051808303815f875af192505050801561149d575060408051601f3d908101601f1916820190925261149a91810190612470565b60015b611504573d8080156114ca576040519150601f19603f3d011682016040523d82523d5f602084013e6114cf565b606091505b5080515f036114fc57604051633250574960e11b81526001600160a01b038516600482015260240161062c565b805181602001fd5b6001600160e01b03198116630a85bd0160e11b1461154057604051633250574960e11b81526001600160a01b038516600482015260240161062c565b505b5050505050565b610603828260405180602001604052805f815250611c8e565b5f82815260066020526040902061157982826124cf565b506040518281527ff8e1a15aba9398e019f0b49df1a4fde98ee17ae345cb5f6b5e2c27f5033e8ce79060200160405180910390a15050565b60018860ff16101580156115c95750600a8860ff1611155b6116155760405162461bcd60e51b815260206004820152601860248201527f4f726967696e616c697479206f7574206f662072616e67650000000000000000604482015260640161062c565b60018760ff161015801561162d5750600a8760ff1611155b6116795760405162461bcd60e51b815260206004820152601860248201527f466561736962696c697479206f7574206f662072616e67650000000000000000604482015260640161062c565b60018660ff16101580156116915750600a8660ff1611155b6116dd5760405162461bcd60e51b815260206004820152601a60248201527f4d61726b65742044656d616e64206f7574206f662072616e6765000000000000604482015260640161062c565b60018560ff16101580156116f55750600a8560ff1611155b6117415760405162461bcd60e51b815260206004820152601760248201527f436f6d706c6578697479206f7574206f662072616e6765000000000000000000604482015260640161062c565b60018460ff16101580156117595750600a8460ff1611155b6117a55760405162461bcd60e51b815260206004820152601960248201527f436f6d706c6574656e657373206f7574206f662072616e676500000000000000604482015260640161062c565b60018360ff16101580156117bd5750600a8360ff1611155b6118095760405162461bcd60e51b815260206004820152601d60248201527f546563686e6f6c6f677920537461636b206f7574206f662072616e6765000000604482015260640161062c565b60018260ff16101580156118215750600a8260ff1611155b6118785760405162461bcd60e51b815260206004820152602260248201527f536f66747761726520526571756972656d656e7473206f7574206f662072616e604482015261676560f01b606482015260840161062c565b60018160ff16101580156118905750600a8160ff1611155b6118dc5760405162461bcd60e51b815260206004820152601760248201527f416c676f726974686d73206f7574206f662072616e6765000000000000000000604482015260640161062c565b6040518061010001604052808960ff1681526020018860ff1681526020018760ff1681526020018660ff1681526020018560ff1681526020018460ff1681526020018360ff1681526020018260ff16815250600c5f8b81526020019081526020015f205f820151815f015f6101000a81548160ff021916908360ff1602179055506020820151815f0160016101000a81548160ff021916908360ff1602179055506040820151815f0160026101000a81548160ff021916908360ff1602179055506060820151815f0160036101000a81548160ff021916908360ff1602179055506080820151815f0160046101000a81548160ff021916908360ff16021790555060a0820151815f0160056101000a81548160ff021916908360ff16021790555060c0820151815f0160066101000a81548160ff021916908360ff16021790555060e0820151815f0160076101000a81548160ff021916908360ff160217905550905050887f636c19410d30a2682721c437d02c842f6ff90ec0c554918fdc5652cca0877c528989898989898989604051611a7e989796959493929190611f64565b60405180910390a2505050505050505050565b6060611a9c82611061565b505f611ab260408051602081019091525f815290565b90505f815111611ad05760405180602001604052805f815250611afb565b80611ada84611ca5565b604051602001611aeb929190612420565b6040516020818303038152906040525b9392505050565b5f6001600160e01b03198216632483248360e11b148061053c575061053c82611d35565b8080611b3a57506001600160a01b03821615155b15611bfb575f611b4984611061565b90506001600160a01b03831615801590611b755750826001600160a01b0316816001600160a01b031614155b8015611b885750611b868184610fd3565b155b15611bb15760405163a9fbf51f60e01b81526001600160a01b038416600482015260240161062c565b8115611bf95783856001600160a01b0316826001600160a01b03167f8c5be1e5ebec7d5bd14f71427d1e84f3dd0314c0f7b2291e5b200ac8c7c3b92560405160405180910390a45b505b50505f90815260046020526040902080546001600160a01b0319166001600160a01b0392909216919091179055565b611c35838383611d84565b610881576001600160a01b038316611c6357604051637e27328960e01b81526004810182905260240161062c565b60405163177e802f60e01b81526001600160a01b03831660048201526024810182905260440161062c565b611c988383611de5565b610881335f858585611421565b60605f611cb183611e46565b60010190505f8167ffffffffffffffff811115611cd057611cd0612149565b6040519080825280601f01601f191660200182016040528015611cfa576020820181803683370190505b5090508181016020015b5f19016f181899199a1a9b1b9c1cb0b131b232b360811b600a86061a8153600a8504945084611d0457509392505050565b5f6001600160e01b031982166380ac58cd60e01b1480611d6557506001600160e01b03198216635b5e139f60e01b145b8061053c57506301ffc9a760e01b6001600160e01b031983161461053c565b5f6001600160a01b03831615801590610fcb5750826001600160a01b0316846001600160a01b03161480611dbd5750611dbd8484610fd3565b80610fcb5750505f908152600460205260409020546001600160a01b03908116911614919050565b6001600160a01b038216611e0e57604051633250574960e11b81525f600482015260240161062c565b5f611e1a83835f6110a6565b90506001600160a01b03811615610881576040516339e3563760e11b81525f600482015260240161062c565b5f8072184f03e93ff9f4daa797ed6e38ed64bf6a1f0160401b8310611e845772184f03e93ff9f4daa797ed6e38ed64bf6a1f0160401b830492506040015b6d04ee2d6d415b85acef81000000008310611eb0576d04ee2d6d415b85acef8100000000830492506020015b662386f26fc100008310611ece57662386f26fc10000830492506010015b6305f5e1008310611ee6576305f5e100830492506008015b6127108310611efa57612710830492506004015b60648310611f0c576064830492506002015b600a831061053c5760010192915050565b6001600160e01b03198116811461103a575f5ffd5b5f60208284031215611f42575f5ffd5b8135611afb81611f1d565b5f60208284031215611f5d575f5ffd5b5035919050565b60ff98891681529688166020880152948716604087015292861660608601529085166080850152841660a0840152831660c083015290911660e08201526101000190565b5f81518084528060208401602086015e5f602082860101526020601f19601f83011685010191505092915050565b602081525f611afb6020830184611fa8565b80356001600160a01b0381168114611ffe575f5ffd5b919050565b5f5f60408385031215612014575f5ffd5b61201d83611fe8565b946020939093013593505050565b5f5f5f6060848603121561203d575f5ffd5b61204684611fe8565b925061205460208501611fe8565b929592945050506040919091013590565b5f5f60408385031215612076575f5ffd5b50508035926020909101359150565b5f60208284031215612095575f5ffd5b611afb82611fe8565b5f5f5f606084860312156120b0575f5ffd5b833592506120c060208501611fe8565b915060408401356001600160601b03811681146120db575f5ffd5b809150509250925092565b5f5f604083850312156120f7575f5ffd5b8235915061210760208401611fe8565b90509250929050565b5f5f60408385031215612121575f5ffd5b61212a83611fe8565b91506020830135801515811461213e575f5ffd5b809150509250929050565b634e487b7160e01b5f52604160045260245ffd5b5f5f5f5f60808587031215612170575f5ffd5b61217985611fe8565b935061218760208601611fe8565b925060408501359150606085013567ffffffffffffffff8111156121a9575f5ffd5b8501601f810187136121b9575f5ffd5b803567ffffffffffffffff8111156121d3576121d3612149565b604051601f8201601f19908116603f0116810167ffffffffffffffff8111828210171561220257612202612149565b604052818152828201602001891015612219575f5ffd5b816020840160208301375f6020838301015280935050505092959194509250565b5f5f5f5f84860361014081121561224f575f5ffd5b61225886611fe8565b9450602086013567ffffffffffffffff811115612273575f5ffd5b8601601f81018813612283575f5ffd5b803567ffffffffffffffff811115612299575f5ffd5b8860208284010111156122aa575f5ffd5b60209190910194509250610100603f19820112156122c6575f5ffd5b509295919450926040019150565b5f5f604083850312156122e5575f5ffd5b6122ee83611fe8565b915061210760208401611fe8565b600181811c9082168061231057607f821691505b60208210810361232e57634e487b7160e01b5f52602260045260245ffd5b50919050565b634e487b7160e01b5f52601160045260245ffd5b808202811582820484141761053c5761053c612334565b5f8261237957634e487b7160e01b5f52601260045260245ffd5b500490565b8181038181111561053c5761053c612334565b5f6001600160801b0382166001600160801b0381036123b2576123b2612334565b60010192915050565b5f602082840312156123cb575f5ffd5b813560ff81168114611afb575f5ffd5b60208152816020820152818360408301375f818301604090810191909152601f909201601f19160101919050565b5f81518060208401855e5f93019283525090919050565b5f610fcb61242e8386612409565b84612409565b6001600160a01b03858116825284166020820152604081018390526080606082018190525f9061246690830184611fa8565b9695505050505050565b5f60208284031215612480575f5ffd5b8151611afb81611f1d565b601f82111561088157805f5260205f20601f840160051c810160208510156124b05750805b601f840160051c820191505b81811015611542575f81556001016124bc565b815167ffffffffffffffff8111156124e9576124e9612149565b6124fd816124f784546122fc565b8461248b565b6020601f82116001811461252f575f83156125185750848201515b5f19600385901b1c1916600184901b178455611542565b5f84815260208120601f198516915b8281101561255e578785015182556020948501946001909201910161253e565b508482101561257b57868401515f19600387901b60f8161c191681555b50505050600190811b0190555056fea26469706673582212202dd58897b333614f0c3336e42aed5a95e0fb61eeb2892a830fb8d7b42fe41cc164736f6c634300081c0033","linkReferences":{}},"methodIdentifiers":{"acceptOffer(uint256,address)":"918d407d","approve(address,uint256)":"095ea7b3","balanceOf(address)":"70a08231","getApproved(uint256)":"081812fc","getScores(uint256)":"04527d90","isApprovedForAll(address,address)":"e985e9c5","mintIdea(address,string,(uint8,uint8,uint8,uint8,uint8,uint8,uint8,uint8))":"c4fb8cee","name()":"06fdde03","offers(uint256,address)":"ebdfbce5","owner()":"8da5cb5b","ownerOf(uint256)":"6352211e","placeOffer(uint256)":"2474659a","renounceOwnership()":"715018a6","royaltyInfo(uint256,uint256)":"2a55205a","safeTransferFrom(address,address,uint256)":"42842e0e","safeTransferFrom(address,address,uint256,bytes)":"b88d4fde","setApprovalForAll(address,bool)":"a22cb465","setRoyalty(uint256,address,uint96)":"80c8d690","supportsInterface(bytes4)":"01ffc9a7","symbol()":"95d89b41","tokenURI(uint256)":"c87b56dd","transferFrom(address,address,uint256)":"23b872dd","transferOwnership(address)":"f2fde38b","withdrawOffer(uint256)":"8610f045"},"id":21}