{"abi":[{"type":"constructor","inputs":[],"stateMutability":"nonpayable"},{"type":"fallback","stateMutability":"payable"},{"type":"receive","stateMutability":"payable"},{"type":"function","name":"acceptOffer","inputs":[{"name":"tokenId","type":"uint256","internalType":"uint256"},{"name":"offeror","type":"address","internalType":"address"}],"outputs":[],"stateMutability":"nonpayable"},{"type":"function","name":"approve","inputs":[{"name":"to","type":"address","internalType":"address"},{"name":"tokenId","type":"uint256","internalType":"uint256"}],"outputs":[],"stateMutability":"nonpayable"},{"type":"function","name":"balanceOf","inputs":[{"name":"owner","type":"address","internalType":"address"}],"outputs":[{"name":"","type":"uint256","internalType":"uint256"}],"stateMutability":"view"},{"type":"function","name":"getAllOffers","inputs":[],"outputs":[{"name":"","type":"uint256[]","internalType":"uint256[]"}],"stateMutability":"view"},{"type":"function","name":"getApproved","inputs":[{"name":"tokenId","type":"uint256","internalType":"uint256"}],"outputs":[{"name":"","type":"address","internalType":"address"}],"stateMutability":"view"},{"type":"function","name":"isApprovedForAll","inputs":[{"name":"owner","type":"address","internalType":"address"},{"name":"operator","type":"address","internalType":"address"}],"outputs":[{"name":"","type":"bool","internalType":"bool"}],"stateMutability":"view"},{"type":"function","name":"mintIdea","inputs":[{"name":"to","type":"address","internalType":"address"},{"name":"tokenURI_","type":"string","internalType":"string"}],"outputs":[],"stateMutability":"nonpayable"},{"type":"function","name":"name","inputs":[],"outputs":[{"name":"","type":"string","internalType":"string"}],"stateMutability":"view"},{"type":"function","name":"offers","inputs":[{"name":"","type":"uint256","internalType":"uint256"},{"name":"","type":"address","internalType":"address"}],"outputs":[{"name":"","type":"uint256","internalType":"uint256"}],"stateMutability":"view"},{"type":"function","name":"owner","inputs":[],"outputs":[{"name":"","type":"address","internalType":"address"}],"stateMutability":"view"},{"type":"function","name":"ownerOf","inputs":[{"name":"tokenId","type":"uint256","internalType":"uint256"}],"outputs":[{"name":"","type":"address","internalType":"address"}],"stateMutability":"view"},{"type":"function","name":"placeOffer","inputs":[{"name":"tokenId","type":"uint256","internalType":"uint256"}],"outputs":[],"stateMutability":"payable"},{"type":"function","name":"renounceOwnership","inputs":[],"outputs":[],"stateMutability":"nonpayable"},{"type":"function","name":"royaltyInfo","inputs":[{"name":"tokenId","type":"uint256","internalType":"uint256"},{"name":"salePrice","type":"uint256","internalType":"uint256"}],"outputs":[{"name":"receiver","type":"address","internalType":"address"},{"name":"amount","type":"uint256","internalType":"uint256"}],"stateMutability":"view"},{"type":"function","name":"safeTransferFrom","inputs":[{"name":"from","type":"address","internalType":"address"},{"name":"to","type":"address","internalType":"address"},{"name":"tokenId","type":"uint256","internalType":"uint256"}],"outputs":[],"stateMutability":"nonpayable"},{"type":"function","name":"safeTransferFrom","inputs":[{"name":"from","type":"address","internalType":"address"},{"name":"to","type":"address","internalType":"address"},{"name":"tokenId","type":"uint256","internalType":"uint256"},{"name":"data","type":"bytes","internalType":"bytes"}],"outputs":[],"stateMutability":"nonpayable"},{"type":"function","name":"setApprovalForAll","inputs":[{"name":"operator","type":"address","internalType":"address"},{"name":"approved","type":"bool","internalType":"bool"}],"outputs":[],"stateMutability":"nonpayable"},{"type":"function","name":"setRoyalty","inputs":[{"name":"tokenId","type":"uint256","internalType":"uint256"},{"name":"receiver","type":"address","internalType":"address"},{"name":"feeNumerator","type":"uint96","internalType":"uint96"}],"outputs":[],"stateMutability":"nonpayable"},{"type":"function","name":"supportsInterface","inputs":[{"name":"interfaceId","type":"bytes4","internalType":"bytes4"}],"outputs":[{"name":"","type":"bool","internalType":"bool"}],"stateMutability":"view"},{"type":"function","name":"symbol","inputs":[],"outputs":[{"name":"","type":"string","internalType":"string"}],"stateMutability":"view"},{"type":"function","name":"tokenURI","inputs":[{"name":"tokenId","type":"uint256","internalType":"uint256"}],"outputs":[{"name":"","type":"string","internalType":"string"}],"stateMutability":"view"},{"type":"function","name":"transferFrom","inputs":[{"name":"from","type":"address","internalType":"address"},{"name":"to","type":"address","internalType":"address"},{"name":"tokenId","type":"uint256","internalType":"uint256"}],"outputs":[],"stateMutability":"nonpayable"},{"type":"function","name":"transferOwnership","inputs":[{"name":"newOwner","type":"address","internalType":"address"}],"outputs":[],"stateMutability":"nonpayable"},{"type":"function","name":"withdrawOffer","inputs":[{"name":"tokenId","type":"uint256","internalType":"uint256"}],"outputs":[],"stateMutability":"nonpayable"},{"type":"event","name":"Approval","inputs":[{"name":"owner","type":"address","indexed":true,"internalType":"address"},{"name":"approved","type":"address","indexed":true,"internalType":"address"},{"name":"tokenId","type":"uint256","indexed":true,"internalType":"uint256"}],"anonymous":false},{"type":"event","name":"ApprovalForAll","inputs":[{"name":"owner","type":"address","indexed":true,"internalType":"address"},{"name":"operator","type":"address","indexed":true,"internalType":"address"},{"name":"approved","type":"bool","indexed":false,"internalType":"bool"}],"anonymous":false},{"type":"event","name":"BatchMetadataUpdate","inputs":[{"name":"_fromTokenId","type":"uint256","indexed":false,"internalType":"uint256"},{"name":"_toTokenId","type":"uint256","indexed":false,"internalType":"uint256"}],"anonymous":false},{"type":"event","name":"IdeaMinted","inputs":[{"name":"tokenId","type":"uint256","indexed":true,"internalType":"uint256"},{"name":"creator","type":"address","indexed":true,"internalType":"address"},{"name":"metadataURI","type":"string","indexed":false,"internalType":"string"}],"anonymous":false},{"type":"event","name":"MetadataUpdate","inputs":[{"name":"_tokenId","type":"uint256","indexed":false,"internalType":"uint256"}],"anonymous":false},{"type":"event","name":"OfferAccepted","inputs":[{"name":"tokenId","type":"uint256","indexed":true,"internalType":"uint256"},{"name":"seller","type":"address","indexed":true,"internalType":"address"},{"name":"buyer","type":"address","indexed":true,"internalType":"address"},{"name":"salePrice","type":"uint256","indexed":false,"internalType":"uint256"}],"anonymous":false},{"type":"event","name":"OfferPlaced","inputs":[{"name":"tokenId","type":"uint256","indexed":true,"internalType":"uint256"},{"name":"offeror","type":"address","indexed":true,"internalType":"address"},{"name":"amount","type":"uint256","indexed":false,"internalType":"uint256"}],"anonymous":false},{"type":"event","name":"OfferWithdrawn","inputs":[{"name":"tokenId","type":"uint256","indexed":true,"internalType":"uint256"},{"name":"offeror","type":"address","indexed":true,"internalType":"address"}],"anonymous":false},{"type":"event","name":"OwnershipTransferred","inputs":[{"name":"previousOwner","type":"address","indexed":true,"internalType":"address"},{"name":"newOwner","type":"address","indexed":true,"internalType":"address"}],"anonymous":false},{"type":"event","name":"Transfer","inputs":[{"name":"from","type":"address","indexed":true,"internalType":"address"},{"name":"to","type":"address","indexed":true,"internalType":"address"},{"name":"tokenId","type":"uint256","indexed":true,"internalType":"uint256"}],"anonymous":false},{"type":"error","name":"ERC2981InvalidDefaultRoyalty","inputs":[{"name":"numerator","type":"uint256","internalType":"uint256"},{"name":"denominator","type":"uint256","internalType":"uint256"}]},{"type":"error","name":"ERC2981InvalidDefaultRoyaltyReceiver","inputs":[{"name":"receiver","type":"address","internalType":"address"}]},{"type":"error","name":"ERC2981InvalidTokenRoyalty","inputs":[{"name":"tokenId","type":"uint256","internalType":"uint256"},{"name":"numerator","type":"uint256","internalType":"uint256"},{"name":"denominator","type":"uint256","internalType":"uint256"}]},{"type":"error","name":"ERC2981InvalidTokenRoyaltyReceiver","inputs":[{"name":"tokenId","type":"uint256","internalType":"uint256"},{"name":"receiver","type":"address","internalType":"address"}]},{"type":"error","name":"ERC721IncorrectOwner","inputs":[{"name":"sender","type":"address","internalType":"address"},{"name":"tokenId","type":"uint256","internalType":"uint256"},{"name":"owner","type":"address","internalType":"address"}]},{"type":"error","name":"ERC721InsufficientApproval","inputs":[{"name":"operator","type":"address","internalType":"address"},{"name":"tokenId","type":"uint256","internalType":"uint256"}]},{"type":"error","name":"ERC721InvalidApprover","inputs":[{"name":"approver","type":"address","internalType":"address"}]},{"type":"error","name":"ERC721InvalidOperator","inputs":[{"name":"operator","type":"address","internalType":"address"}]},{"type":"error","name":"ERC721InvalidOwner","inputs":[{"name":"owner","type":"address","internalType":"address"}]},{"type":"error","name":"ERC721InvalidReceiver","inputs":[{"name":"receiver","type":"address","internalType":"address"}]},{"type":"error","name":"ERC721InvalidSender","inputs":[{"name":"sender","type":"address","internalType":"address"}]},{"type":"error","name":"ERC721NonexistentToken","inputs":[{"name":"tokenId","type":"uint256","internalType":"uint256"}]},{"type":"error","name":"OwnableInvalidOwner","inputs":[{"name":"owner","type":"address","internalType":"address"}]},{"type":"error","name":"OwnableUnauthorizedAccount","inputs":[{"name":"account","type":"address","internalType":"address"}]}],"bytecode":{"object":"0x608060405234801561000f575f5ffd5b5033604051806040016040528060078152602001661259195853919560ca1b815250604051806040016040528060048152602001634944454160e01b815250815f908161005c9190610191565b5060016100698282610191565b5050506001600160a01b03811661009957604051631e4fbdf760e01b81525f600482015260240160405180910390fd5b6100a2816100a8565b5061024b565b600980546001600160a01b038381166001600160a01b0319831681179093556040519116919082907f8be0079c531659141344cd1fd0a4f28419497f9722a3daafe3b4186f6b6457e0905f90a35050565b634e487b7160e01b5f52604160045260245ffd5b600181811c9082168061012157607f821691505b60208210810361013f57634e487b7160e01b5f52602260045260245ffd5b50919050565b601f82111561018c57805f5260205f20601f840160051c8101602085101561016a5750805b601f840160051c820191505b81811015610189575f8155600101610176565b50505b505050565b81516001600160401b038111156101aa576101aa6100f9565b6101be816101b8845461010d565b84610145565b6020601f8211600181146101f0575f83156101d95750848201515b5f19600385901b1c1916600184901b178455610189565b5f84815260208120601f198516915b8281101561021f57878501518255602094850194600190920191016101ff565b508482101561023c57868401515f19600387901b60f8161c191681555b50505050600190811b01905550565b61207f806102585f395ff3fe608060405260043610610141575f3560e01c80638610f045116100af578063b88d4fde1161006b578063b88d4fde146103ab578063c87b56dd146103ca578063e985e9c5146103e9578063ebdfbce514610408578063f2fde38b1461043e578063fb9695cb1461045d57005b80638610f045146102fc5780638da5cb5b1461031b578063918d407d1461033857806395d89b4114610357578063a16552781461036b578063a22cb4651461038c57005b80632a55205a116100fe5780632a55205a1461022057806342842e0e1461025e5780636352211e1461027d57806370a082311461029c578063715018a6146102c957806380c8d690146102dd57005b806301ffc9a71461014357806306fdde0314610177578063081812fc14610198578063095ea7b3146101cf57806323b872dd146101ee5780632474659a1461020d575b005b34801561014e575f5ffd5b5061016261015d366004611a03565b61047c565b60405190151581526020015b60405180910390f35b348015610182575f5ffd5b5061018b61048c565b60405161016e9190611a4c565b3480156101a3575f5ffd5b506101b76101b2366004611a5e565b61051b565b6040516001600160a01b03909116815260200161016e565b3480156101da575f5ffd5b506101416101e9366004611a90565b610542565b3480156101f9575f5ffd5b50610141610208366004611ab8565b610551565b61014161021b366004611a5e565b6105df565b34801561022b575f5ffd5b5061023f61023a366004611af2565b6106ce565b604080516001600160a01b03909316835260208301919091520161016e565b348015610269575f5ffd5b50610141610278366004611ab8565b610751565b348015610288575f5ffd5b506101b7610297366004611a5e565b610770565b3480156102a7575f5ffd5b506102bb6102b6366004611b12565b61077a565b60405190815260200161016e565b3480156102d4575f5ffd5b506101416107bf565b3480156102e8575f5ffd5b506101416102f7366004611b2b565b6107d2565b348015610307575f5ffd5b50610141610316366004611a5e565b61082d565b348015610326575f5ffd5b506009546001600160a01b03166101b7565b348015610343575f5ffd5b50610141610352366004611b73565b61095d565b348015610362575f5ffd5b5061018b610c1a565b348015610376575f5ffd5b5061037f610c29565b60405161016e9190611b9d565b348015610397575f5ffd5b506101416103a6366004611bdf565b610d78565b3480156103b6575f5ffd5b506101416103c5366004611c2c565b610d83565b3480156103d5575f5ffd5b5061018b6103e4366004611a5e565b610d9b565b3480156103f4575f5ffd5b50610162610403366004611d09565b610ea6565b348015610413575f5ffd5b506102bb610422366004611b73565b600b60209081525f928352604080842090915290825290205481565b348015610449575f5ffd5b50610141610458366004611b12565b610ed3565b348015610468575f5ffd5b50610141610477366004611d31565b610f10565b5f61048682610fee565b92915050565b60605f805461049a90611daf565b80601f01602080910402602001604051908101604052809291908181526020018280546104c690611daf565b80156105115780601f106104e857610100808354040283529160200191610511565b820191905f5260205f20905b8154815290600101906020018083116104f457829003601f168201915b5050505050905090565b5f61052582611012565b505f828152600460205260409020546001600160a01b0316610486565b61054d82823361104a565b5050565b6001600160a01b03821661057f57604051633250574960e11b81525f60048201526024015b60405180910390fd5b5f61058b838333611057565b9050836001600160a01b0316816001600160a01b0316146105d9576040516364283d7b60e01b81526001600160a01b0380861660048301526024820184905282166044820152606401610576565b50505050565b5f6105e982610770565b6001600160a01b0316036106365760405162461bcd60e51b8152602060048201526014602482015273151bdad95b88191bd95cc81b9bdd08195e1a5cdd60621b6044820152606401610576565b5f34116106795760405162461bcd60e51b815260206004820152601160248201527004f66666572206d757374206265203e203607c1b6044820152606401610576565b5f818152600b6020908152604080832033808552908352928190203490819055905190815283917fd294afec9d7ab02d1bc3b945a2e833190e9ac8c221c99a27a16afab5cf59e928910160405180910390a350565b5f82815260086020526040812080548291906001600160a01b03811690600160a01b90046001600160601b0316816107215750506007546001600160a01b03811690600160a01b90046001600160601b03165b5f6127106107386001600160601b03841689611dfb565b6107429190611e12565b92989297509195505050505050565b61076b83838360405180602001604052805f815250610d83565b505050565b5f61048682611012565b5f6001600160a01b0382166107a4576040516322718ad960e21b81525f6004820152602401610576565b506001600160a01b03165f9081526003602052604090205490565b6107c7611149565b6107d05f611176565b565b336107dc84610770565b6001600160a01b0316146108225760405162461bcd60e51b815260206004820152600d60248201526c2737ba1027232a1037bbb732b960991b6044820152606401610576565b61076b8383836111c7565b5f818152600b602090815260408083203384529091529020548061088a5760405162461bcd60e51b81526020600482015260146024820152734e6f206f6666657220746f20776974686472617760601b6044820152606401610576565b5f828152600b602090815260408083203380855292528083208390555183908381818185875af1925050503d805f81146108df576040519150601f19603f3d011682016040523d82523d5f602084013e6108e4565b606091505b505090508061092c5760405162461bcd60e51b81526020600482015260146024820152732330b4b632b2103a379039b2b7321022ba3432b960611b6044820152606401610576565b604051339084907fe6f4d8e39c4a3ade2f3812a17eb8f658c1cc293ceee263362516f01750847ac8905f90a3505050565b3361096783610770565b6001600160a01b0316146109bd5760405162461bcd60e51b815260206004820152601960248201527f43616c6c6572206973206e6f7420746f6b656e206f776e6572000000000000006044820152606401610576565b5f828152600b602090815260408083206001600160a01b038516845290915290205480610a2c5760405162461bcd60e51b815260206004820152601a60248201527f4e6f206f666665722066726f6d207468697320616464726573730000000000006044820152606401610576565b5f838152600b602090815260408083206001600160a01b0386168452909152812081905580610a5b85846106ce565b9092509050828115801590610a7857506001600160a01b03831615155b15610b2357610a878285611e31565b90505f836001600160a01b0316836040515f6040518083038185875af1925050503d805f8114610ad2576040519150601f19603f3d011682016040523d82523d5f602084013e610ad7565b606091505b5050905080610b215760405162461bcd60e51b81526020600482015260166024820152754661696c656420746f2073656e6420726f79616c747960501b6044820152606401610576565b505b6040515f90339083908381818185875af1925050503d805f8114610b62576040519150601f19603f3d011682016040523d82523d5f602084013e610b67565b606091505b5050905080610bb85760405162461bcd60e51b815260206004820152601e60248201527f4661696c656420746f2073656e6420457468657220746f2073656c6c657200006044820152606401610576565b610bc3338789611287565b856001600160a01b0316336001600160a01b0316887fc67f49229cab3f614ad390c12432e0e671552dcfd15e24ddc005cf5a01a0213588604051610c0991815260200190565b60405180910390a450505050505050565b60606001805461049a90611daf565b600a546060905f906001600160801b031667ffffffffffffffff811115610c5257610c52611c18565b604051908082528060200260200182016040528015610c7b578160200160208202803683370190505b5090505f805b600a546001600160801b0316811015610ce0575f610c9e82610770565b6001600160a01b031614610cd85780838381518110610cbf57610cbf611e44565b602090810291909101015281610cd481611e58565b9250505b600101610c81565b505f8167ffffffffffffffff811115610cfb57610cfb611c18565b604051908082528060200260200182016040528015610d24578160200160208202803683370190505b5090505f5b82811015610d7057838181518110610d4357610d43611e44565b6020026020010151828281518110610d5d57610d5d611e44565b6020908102919091010152600101610d29565b509392505050565b61054d338383611334565b610d8e848484610551565b6105d933858585856113d2565b6060610da682611012565b505f8281526006602052604081208054610dbf90611daf565b80601f0160208091040260200160405190810160405280929190818152602001828054610deb90611daf565b8015610e365780601f10610e0d57610100808354040283529160200191610e36565b820191905f5260205f20905b815481529060010190602001808311610e1957829003601f168201915b505050505090505f610e5260408051602081019091525f815290565b905080515f03610e63575092915050565b815115610e95578082604051602001610e7d929190611e87565b60405160208183030381529060405292505050919050565b610e9e846114fa565b949350505050565b6001600160a01b039182165f90815260056020908152604080832093909416825291909152205460ff1690565b610edb611149565b6001600160a01b038116610f0457604051631e4fbdf760e01b81525f6004820152602401610576565b610f0d81611176565b50565b600a80546001600160801b03169081905f610f2a83611e9b565b91906101000a8154816001600160801b0302191690836001600160801b0316021790555050610f59848261156b565b610f988184848080601f0160208091040260200160405190810160405280939291908181526020018383808284375f9201919091525061158492505050565b610fa4818560326111c7565b836001600160a01b0316817f546a1f9ba985f54e9d70cf97c906e62398d5447a75217d819da0adff77f2cbda8585604051610fe0929190611ec5565b60405180910390a350505050565b5f6001600160e01b0319821663152a902d60e11b14806104865750610486826115d3565b5f818152600260205260408120546001600160a01b03168061048657604051637e27328960e01b815260048101849052602401610576565b61076b83838360016115f7565b5f828152600260205260408120546001600160a01b0390811690831615611083576110838184866116fb565b6001600160a01b038116156110bd5761109e5f855f5f6115f7565b6001600160a01b0381165f90815260036020526040902080545f190190555b6001600160a01b038516156110eb576001600160a01b0385165f908152600360205260409020805460010190555b5f8481526002602052604080822080546001600160a01b0319166001600160a01b0389811691821790925591518793918516917fddf252ad1be2c89b69c2b068fc378daa952ba7f163c4a11628f55a4df523b3ef91a4949350505050565b6009546001600160a01b031633146107d05760405163118cdaa760e01b8152336004820152602401610576565b600980546001600160a01b038381166001600160a01b0319831681179093556040519116919082907f8be0079c531659141344cd1fd0a4f28419497f9722a3daafe3b4186f6b6457e0905f90a35050565b6127106001600160601b03821681101561120d5760405163dfd1fc1b60e01b8152600481018590526001600160601b038316602482015260448101829052606401610576565b6001600160a01b03831661123d57604051634b4f842960e11b8152600481018590525f6024820152604401610576565b506040805180820182526001600160a01b0393841681526001600160601b0392831660208083019182525f968752600890529190942093519051909116600160a01b029116179055565b6001600160a01b0382166112b057604051633250574960e11b81525f6004820152602401610576565b5f6112bc83835f611057565b90506001600160a01b0381166112e857604051637e27328960e01b815260048101839052602401610576565b836001600160a01b0316816001600160a01b0316146105d9576040516364283d7b60e01b81526001600160a01b0380861660048301526024820184905282166044820152606401610576565b6001600160a01b03821661136657604051630b61174360e31b81526001600160a01b0383166004820152602401610576565b6001600160a01b038381165f81815260056020908152604080832094871680845294825291829020805460ff191686151590811790915591519182527f17307eab39ab6107e8899845ad3d59bd9653f200f220920489ca2b5937696c31910160405180910390a3505050565b6001600160a01b0383163b156114f357604051630a85bd0160e11b81526001600160a01b0384169063150b7a0290611414908890889087908790600401611ef3565b6020604051808303815f875af192505050801561144e575060408051601f3d908101601f1916820190925261144b91810190611f2f565b60015b6114b5573d80801561147b576040519150601f19603f3d011682016040523d82523d5f602084013e611480565b606091505b5080515f036114ad57604051633250574960e11b81526001600160a01b0385166004820152602401610576565b805181602001fd5b6001600160e01b03198116630a85bd0160e11b146114f157604051633250574960e11b81526001600160a01b0385166004820152602401610576565b505b5050505050565b606061150582611012565b505f61151b60408051602081019091525f815290565b90505f8151116115395760405180602001604052805f815250611564565b806115438461175f565b604051602001611554929190611e87565b6040516020818303038152906040525b9392505050565b61054d828260405180602001604052805f8152506117ef565b5f82815260066020526040902061159b8282611f8e565b506040518281527ff8e1a15aba9398e019f0b49df1a4fde98ee17ae345cb5f6b5e2c27f5033e8ce79060200160405180910390a15050565b5f6001600160e01b03198216632483248360e11b1480610486575061048682611806565b808061160b57506001600160a01b03821615155b156116cc575f61161a84611012565b90506001600160a01b038316158015906116465750826001600160a01b0316816001600160a01b031614155b801561165957506116578184610ea6565b155b156116825760405163a9fbf51f60e01b81526001600160a01b0384166004820152602401610576565b81156116ca5783856001600160a01b0316826001600160a01b03167f8c5be1e5ebec7d5bd14f71427d1e84f3dd0314c0f7b2291e5b200ac8c7c3b92560405160405180910390a45b505b50505f90815260046020526040902080546001600160a01b0319166001600160a01b0392909216919091179055565b611706838383611855565b61076b576001600160a01b03831661173457604051637e27328960e01b815260048101829052602401610576565b60405163177e802f60e01b81526001600160a01b038316600482015260248101829052604401610576565b60605f61176b836118b6565b60010190505f8167ffffffffffffffff81111561178a5761178a611c18565b6040519080825280601f01601f1916602001820160405280156117b4576020820181803683370190505b5090508181016020015b5f19016f181899199a1a9b1b9c1cb0b131b232b360811b600a86061a8153600a85049450846117be57509392505050565b6117f9838361198d565b61076b335f8585856113d2565b5f6001600160e01b031982166380ac58cd60e01b148061183657506001600160e01b03198216635b5e139f60e01b145b8061048657506301ffc9a760e01b6001600160e01b0319831614610486565b5f6001600160a01b03831615801590610e9e5750826001600160a01b0316846001600160a01b0316148061188e575061188e8484610ea6565b80610e9e5750505f908152600460205260409020546001600160a01b03908116911614919050565b5f8072184f03e93ff9f4daa797ed6e38ed64bf6a1f0160401b83106118f45772184f03e93ff9f4daa797ed6e38ed64bf6a1f0160401b830492506040015b6d04ee2d6d415b85acef81000000008310611920576d04ee2d6d415b85acef8100000000830492506020015b662386f26fc10000831061193e57662386f26fc10000830492506010015b6305f5e1008310611956576305f5e100830492506008015b612710831061196a57612710830492506004015b6064831061197c576064830492506002015b600a83106104865760010192915050565b6001600160a01b0382166119b657604051633250574960e11b81525f6004820152602401610576565b5f6119c283835f611057565b90506001600160a01b0381161561076b576040516339e3563760e11b81525f6004820152602401610576565b6001600160e01b031981168114610f0d575f5ffd5b5f60208284031215611a13575f5ffd5b8135611564816119ee565b5f81518084528060208401602086015e5f602082860101526020601f19601f83011685010191505092915050565b602081525f6115646020830184611a1e565b5f60208284031215611a6e575f5ffd5b5035919050565b80356001600160a01b0381168114611a8b575f5ffd5b919050565b5f5f60408385031215611aa1575f5ffd5b611aaa83611a75565b946020939093013593505050565b5f5f5f60608486031215611aca575f5ffd5b611ad384611a75565b9250611ae160208501611a75565b929592945050506040919091013590565b5f5f60408385031215611b03575f5ffd5b50508035926020909101359150565b5f60208284031215611b22575f5ffd5b61156482611a75565b5f5f5f60608486031215611b3d575f5ffd5b83359250611b4d60208501611a75565b915060408401356001600160601b0381168114611b68575f5ffd5b809150509250925092565b5f5f60408385031215611b84575f5ffd5b82359150611b9460208401611a75565b90509250929050565b602080825282518282018190525f918401906040840190835b81811015611bd4578351835260209384019390920191600101611bb6565b509095945050505050565b5f5f60408385031215611bf0575f5ffd5b611bf983611a75565b915060208301358015158114611c0d575f5ffd5b809150509250929050565b634e487b7160e01b5f52604160045260245ffd5b5f5f5f5f60808587031215611c3f575f5ffd5b611c4885611a75565b9350611c5660208601611a75565b925060408501359150606085013567ffffffffffffffff811115611c78575f5ffd5b8501601f81018713611c88575f5ffd5b803567ffffffffffffffff811115611ca257611ca2611c18565b604051601f8201601f19908116603f0116810167ffffffffffffffff81118282101715611cd157611cd1611c18565b604052818152828201602001891015611ce8575f5ffd5b816020840160208301375f6020838301015280935050505092959194509250565b5f5f60408385031215611d1a575f5ffd5b611d2383611a75565b9150611b9460208401611a75565b5f5f5f60408486031215611d43575f5ffd5b611d4c84611a75565b9250602084013567ffffffffffffffff811115611d67575f5ffd5b8401601f81018613611d77575f5ffd5b803567ffffffffffffffff811115611d8d575f5ffd5b866020828401011115611d9e575f5ffd5b939660209190910195509293505050565b600181811c90821680611dc357607f821691505b602082108103611de157634e487b7160e01b5f52602260045260245ffd5b50919050565b634e487b7160e01b5f52601160045260245ffd5b808202811582820484141761048657610486611de7565b5f82611e2c57634e487b7160e01b5f52601260045260245ffd5b500490565b8181038181111561048657610486611de7565b634e487b7160e01b5f52603260045260245ffd5b5f60018201611e6957611e69611de7565b5060010190565b5f81518060208401855e5f93019283525090919050565b5f610e9e611e958386611e70565b84611e70565b5f6001600160801b0382166001600160801b038103611ebc57611ebc611de7565b60010192915050565b60208152816020820152818360408301375f818301604090810191909152601f909201601f19160101919050565b6001600160a01b03858116825284166020820152604081018390526080606082018190525f90611f2590830184611a1e565b9695505050505050565b5f60208284031215611f3f575f5ffd5b8151611564816119ee565b601f82111561076b57805f5260205f20601f840160051c81016020851015611f6f5750805b601f840160051c820191505b818110156114f3575f8155600101611f7b565b815167ffffffffffffffff811115611fa857611fa8611c18565b611fbc81611fb68454611daf565b84611f4a565b6020601f821160018114611fee575f8315611fd75750848201515b5f19600385901b1c1916600184901b1784556114f3565b5f84815260208120601f198516915b8281101561201d5787850151825560209485019460019092019101611ffd565b508482101561203a57868401515f19600387901b60f8161c191681555b50505050600190811b0190555056fea26469706673582212204d5f197124f594135aad72c81b3116789a1c31a2d24384bff56e24ee426b964464736f6c634300081c0033","linkReferences":{}},"methodIdentifiers":{"acceptOffer(uint256,address)":"918d407d","approve(address,uint256)":"095ea7b3","balanceOf(address)":"70a08231","getAllOffers()":"a1655278","getApproved(uint256)":"081812fc","isApprovedForAll(address,address)":"e985e9c5","mintIdea(address,string)":"fb9695cb","name()":"06fdde03","offers(uint256,address)":"ebdfbce5","owner()":"8da5cb5b","ownerOf(uint256)":"6352211e","placeOffer(uint256)":"2474659a","renounceOwnership()":"715018a6","royaltyInfo(uint256,uint256)":"2a55205a","safeTransferFrom(address,address,uint256)":"42842e0e","safeTransferFrom(address,address,uint256,bytes)":"b88d4fde","setApprovalForAll(address,bool)":"a22cb465","setRoyalty(uint256,address,uint96)":"80c8d690","supportsInterface(bytes4)":"01ffc9a7","symbol()":"95d89b41","tokenURI(uint256)":"c87b56dd","transferFrom(address,address,uint256)":"23b872dd","transferOwnership(address)":"f2fde38b","withdrawOffer(uint256)":"8610f045"},"id":21}