{"abi":[{"type":"constructor","inputs":[],"stateMutability":"nonpayable"},{"type":"fallback","stateMutability":"payable"},{"type":"receive","stateMutability":"payable"},{"type":"function","name":"acceptOffer","inputs":[{"name":"tokenId","type":"uint256","internalType":"uint256"},{"name":"offeror","type":"address","internalType":"address"}],"outputs":[],"stateMutability":"nonpayable"},{"type":"function","name":"approve","inputs":[{"name":"to","type":"address","internalType":"address"},{"name":"tokenId","type":"uint256","internalType":"uint256"}],"outputs":[],"stateMutability":"nonpayable"},{"type":"function","name":"balanceOf","inputs":[{"name":"owner","type":"address","internalType":"address"}],"outputs":[{"name":"","type":"uint256","internalType":"uint256"}],"stateMutability":"view"},{"type":"function","name":"getApproved","inputs":[{"name":"tokenId","type":"uint256","internalType":"uint256"}],"outputs":[{"name":"","type":"address","internalType":"address"}],"stateMutability":"view"},{"type":"function","name":"ideas","inputs":[{"name":"","type":"uint256","internalType":"uint256"}],"outputs":[{"name":"ipfsHash","type":"string","internalType":"string"},{"name":"creator","type":"address","internalType":"address"}],"stateMutability":"view"},{"type":"function","name":"isApprovedForAll","inputs":[{"name":"owner","type":"address","internalType":"address"},{"name":"operator","type":"address","internalType":"address"}],"outputs":[{"name":"","type":"bool","internalType":"bool"}],"stateMutability":"view"},{"type":"function","name":"mintIdea","inputs":[{"name":"to","type":"address","internalType":"address"},{"name":"ipfsHash","type":"string","internalType":"string"},{"name":"tokenURI_","type":"string","internalType":"string"}],"outputs":[],"stateMutability":"nonpayable"},{"type":"function","name":"name","inputs":[],"outputs":[{"name":"","type":"string","internalType":"string"}],"stateMutability":"view"},{"type":"function","name":"offers","inputs":[{"name":"","type":"uint256","internalType":"uint256"},{"name":"","type":"address","internalType":"address"}],"outputs":[{"name":"","type":"uint256","internalType":"uint256"}],"stateMutability":"view"},{"type":"function","name":"owner","inputs":[],"outputs":[{"name":"","type":"address","internalType":"address"}],"stateMutability":"view"},{"type":"function","name":"ownerOf","inputs":[{"name":"tokenId","type":"uint256","internalType":"uint256"}],"outputs":[{"name":"","type":"address","internalType":"address"}],"stateMutability":"view"},{"type":"function","name":"placeOffer","inputs":[{"name":"tokenId","type":"uint256","internalType":"uint256"}],"outputs":[],"stateMutability":"payable"},{"type":"function","name":"renounceOwnership","inputs":[],"outputs":[],"stateMutability":"nonpayable"},{"type":"function","name":"royaltyInfo","inputs":[{"name":"tokenId","type":"uint256","internalType":"uint256"},{"name":"salePrice","type":"uint256","internalType":"uint256"}],"outputs":[{"name":"receiver","type":"address","internalType":"address"},{"name":"amount","type":"uint256","internalType":"uint256"}],"stateMutability":"view"},{"type":"function","name":"safeTransferFrom","inputs":[{"name":"from","type":"address","internalType":"address"},{"name":"to","type":"address","internalType":"address"},{"name":"tokenId","type":"uint256","internalType":"uint256"}],"outputs":[],"stateMutability":"nonpayable"},{"type":"function","name":"safeTransferFrom","inputs":[{"name":"from","type":"address","internalType":"address"},{"name":"to","type":"address","internalType":"address"},{"name":"tokenId","type":"uint256","internalType":"uint256"},{"name":"data","type":"bytes","internalType":"bytes"}],"outputs":[],"stateMutability":"nonpayable"},{"type":"function","name":"setApprovalForAll","inputs":[{"name":"operator","type":"address","internalType":"address"},{"name":"approved","type":"bool","internalType":"bool"}],"outputs":[],"stateMutability":"nonpayable"},{"type":"function","name":"setRoyalty","inputs":[{"name":"tokenId","type":"uint256","internalType":"uint256"},{"name":"receiver","type":"address","internalType":"address"},{"name":"feeNumerator","type":"uint96","internalType":"uint96"}],"outputs":[],"stateMutability":"nonpayable"},{"type":"function","name":"supportsInterface","inputs":[{"name":"interfaceId","type":"bytes4","internalType":"bytes4"}],"outputs":[{"name":"","type":"bool","internalType":"bool"}],"stateMutability":"view"},{"type":"function","name":"symbol","inputs":[],"outputs":[{"name":"","type":"string","internalType":"string"}],"stateMutability":"view"},{"type":"function","name":"tokenURI","inputs":[{"name":"tokenId","type":"uint256","internalType":"uint256"}],"outputs":[{"name":"","type":"string","internalType":"string"}],"stateMutability":"view"},{"type":"function","name":"transferFrom","inputs":[{"name":"from","type":"address","internalType":"address"},{"name":"to","type":"address","internalType":"address"},{"name":"tokenId","type":"uint256","internalType":"uint256"}],"outputs":[],"stateMutability":"nonpayable"},{"type":"function","name":"transferOwnership","inputs":[{"name":"newOwner","type":"address","internalType":"address"}],"outputs":[],"stateMutability":"nonpayable"},{"type":"function","name":"withdrawOffer","inputs":[{"name":"tokenId","type":"uint256","internalType":"uint256"}],"outputs":[],"stateMutability":"nonpayable"},{"type":"event","name":"Approval","inputs":[{"name":"owner","type":"address","indexed":true,"internalType":"address"},{"name":"approved","type":"address","indexed":true,"internalType":"address"},{"name":"tokenId","type":"uint256","indexed":true,"internalType":"uint256"}],"anonymous":false},{"type":"event","name":"ApprovalForAll","inputs":[{"name":"owner","type":"address","indexed":true,"internalType":"address"},{"name":"operator","type":"address","indexed":true,"internalType":"address"},{"name":"approved","type":"bool","indexed":false,"internalType":"bool"}],"anonymous":false},{"type":"event","name":"BatchMetadataUpdate","inputs":[{"name":"_fromTokenId","type":"uint256","indexed":false,"internalType":"uint256"},{"name":"_toTokenId","type":"uint256","indexed":false,"internalType":"uint256"}],"anonymous":false},{"type":"event","name":"IdeaMinted","inputs":[{"name":"tokenId","type":"uint256","indexed":true,"internalType":"uint256"},{"name":"creator","type":"address","indexed":true,"internalType":"address"},{"name":"ipfsHash","type":"string","indexed":false,"internalType":"string"},{"name":"metadataURI","type":"string","indexed":false,"internalType":"string"}],"anonymous":false},{"type":"event","name":"MetadataUpdate","inputs":[{"name":"_tokenId","type":"uint256","indexed":false,"internalType":"uint256"}],"anonymous":false},{"type":"event","name":"OfferAccepted","inputs":[{"name":"tokenId","type":"uint256","indexed":true,"internalType":"uint256"},{"name":"seller","type":"address","indexed":true,"internalType":"address"},{"name":"buyer","type":"address","indexed":true,"internalType":"address"},{"name":"salePrice","type":"uint256","indexed":false,"internalType":"uint256"}],"anonymous":false},{"type":"event","name":"OfferPlaced","inputs":[{"name":"tokenId","type":"uint256","indexed":true,"internalType":"uint256"},{"name":"offeror","type":"address","indexed":true,"internalType":"address"},{"name":"amount","type":"uint256","indexed":false,"internalType":"uint256"}],"anonymous":false},{"type":"event","name":"OfferWithdrawn","inputs":[{"name":"tokenId","type":"uint256","indexed":true,"internalType":"uint256"},{"name":"offeror","type":"address","indexed":true,"internalType":"address"}],"anonymous":false},{"type":"event","name":"OwnershipTransferred","inputs":[{"name":"previousOwner","type":"address","indexed":true,"internalType":"address"},{"name":"newOwner","type":"address","indexed":true,"internalType":"address"}],"anonymous":false},{"type":"event","name":"Transfer","inputs":[{"name":"from","type":"address","indexed":true,"internalType":"address"},{"name":"to","type":"address","indexed":true,"internalType":"address"},{"name":"tokenId","type":"uint256","indexed":true,"internalType":"uint256"}],"anonymous":false},{"type":"error","name":"ERC2981InvalidDefaultRoyalty","inputs":[{"name":"numerator","type":"uint256","internalType":"uint256"},{"name":"denominator","type":"uint256","internalType":"uint256"}]},{"type":"error","name":"ERC2981InvalidDefaultRoyaltyReceiver","inputs":[{"name":"receiver","type":"address","internalType":"address"}]},{"type":"error","name":"ERC2981InvalidTokenRoyalty","inputs":[{"name":"tokenId","type":"uint256","internalType":"uint256"},{"name":"numerator","type":"uint256","internalType":"uint256"},{"name":"denominator","type":"uint256","internalType":"uint256"}]},{"type":"error","name":"ERC2981InvalidTokenRoyaltyReceiver","inputs":[{"name":"tokenId","type":"uint256","internalType":"uint256"},{"name":"receiver","type":"address","internalType":"address"}]},{"type":"error","name":"ERC721IncorrectOwner","inputs":[{"name":"sender","type":"address","internalType":"address"},{"name":"tokenId","type":"uint256","internalType":"uint256"},{"name":"owner","type":"address","internalType":"address"}]},{"type":"error","name":"ERC721InsufficientApproval","inputs":[{"name":"operator","type":"address","internalType":"address"},{"name":"tokenId","type":"uint256","internalType":"uint256"}]},{"type":"error","name":"ERC721InvalidApprover","inputs":[{"name":"approver","type":"address","internalType":"address"}]},{"type":"error","name":"ERC721InvalidOperator","inputs":[{"name":"operator","type":"address","internalType":"address"}]},{"type":"error","name":"ERC721InvalidOwner","inputs":[{"name":"owner","type":"address","internalType":"address"}]},{"type":"error","name":"ERC721InvalidReceiver","inputs":[{"name":"receiver","type":"address","internalType":"address"}]},{"type":"error","name":"ERC721InvalidSender","inputs":[{"name":"sender","type":"address","internalType":"address"}]},{"type":"error","name":"ERC721NonexistentToken","inputs":[{"name":"tokenId","type":"uint256","internalType":"uint256"}]},{"type":"error","name":"OwnableInvalidOwner","inputs":[{"name":"owner","type":"address","internalType":"address"}]},{"type":"error","name":"OwnableUnauthorizedAccount","inputs":[{"name":"account","type":"address","internalType":"address"}]}],"bytecode":{"object":"0x608060405234801561000f575f5ffd5b5033604051806040016040528060078152602001661259195853919560ca1b815250604051806040016040528060048152602001634944454160e01b815250815f908161005c9190610191565b5060016100698282610191565b5050506001600160a01b03811661009957604051631e4fbdf760e01b81525f600482015260240160405180910390fd5b6100a2816100a8565b5061024b565b600980546001600160a01b038381166001600160a01b0319831681179093556040519116919082907f8be0079c531659141344cd1fd0a4f28419497f9722a3daafe3b4186f6b6457e0905f90a35050565b634e487b7160e01b5f52604160045260245ffd5b600181811c9082168061012157607f821691505b60208210810361013f57634e487b7160e01b5f52602260045260245ffd5b50919050565b601f82111561018c57805f5260205f20601f840160051c8101602085101561016a5750805b601f840160051c820191505b81811015610189575f8155600101610176565b50505b505050565b81516001600160401b038111156101aa576101aa6100f9565b6101be816101b8845461010d565b84610145565b6020601f8211600181146101f0575f83156101d95750848201515b5f19600385901b1c1916600184901b178455610189565b5f84815260208120601f198516915b8281101561021f57878501518255602094850194600190920191016101ff565b508482101561023c57868401515f19600387901b60f8161c191681555b50505050600190811b01905550565b6120a5806102585f395ff3fe608060405260043610610141575f3560e01c80638610f045116100af578063ac50dad81161006b578063ac50dad8146103b7578063b88d4fde146103d6578063c87b56dd146103f5578063e985e9c514610414578063ebdfbce514610433578063f2fde38b1461046957005b80638610f045146102fc5780638da5cb5b1461031b578063918d407d1461033857806395b538371461035757806395d89b4114610384578063a22cb4651461039857005b80632a55205a116100fe5780632a55205a1461022057806342842e0e1461025e5780636352211e1461027d57806370a082311461029c578063715018a6146102c957806380c8d690146102dd57005b806301ffc9a71461014357806306fdde0314610177578063081812fc14610198578063095ea7b3146101cf57806323b872dd146101ee5780632474659a1461020d575b005b34801561014e575f5ffd5b5061016261015d366004611a03565b610488565b60405190151581526020015b60405180910390f35b348015610182575f5ffd5b5061018b610498565b60405161016e9190611a4c565b3480156101a3575f5ffd5b506101b76101b2366004611a5e565b610527565b6040516001600160a01b03909116815260200161016e565b3480156101da575f5ffd5b506101416101e9366004611a90565b61054e565b3480156101f9575f5ffd5b50610141610208366004611ab8565b61055d565b61014161021b366004611a5e565b6105eb565b34801561022b575f5ffd5b5061023f61023a366004611af2565b6106da565b604080516001600160a01b03909316835260208301919091520161016e565b348015610269575f5ffd5b50610141610278366004611ab8565b61075f565b348015610288575f5ffd5b506101b7610297366004611a5e565b61077e565b3480156102a7575f5ffd5b506102bb6102b6366004611b12565b610788565b60405190815260200161016e565b3480156102d4575f5ffd5b506101416107cd565b3480156102e8575f5ffd5b506101416102f7366004611b2b565b6107e0565b348015610307575f5ffd5b50610141610316366004611a5e565b61083b565b348015610326575f5ffd5b506009546001600160a01b03166101b7565b348015610343575f5ffd5b50610141610352366004611b73565b61096b565b348015610362575f5ffd5b50610376610371366004611a5e565b610c28565b60405161016e929190611b9d565b34801561038f575f5ffd5b5061018b610cd2565b3480156103a3575f5ffd5b506101416103b2366004611bc6565b610ce1565b3480156103c2575f5ffd5b506101416103d1366004611c3d565b610cec565b3480156103e1575f5ffd5b506101416103f0366004611cd1565b610e61565b348015610400575f5ffd5b5061018b61040f366004611a5e565b610e79565b34801561041f575f5ffd5b5061016261042e366004611dae565b610f84565b34801561043e575f5ffd5b506102bb61044d366004611b73565b600c60209081525f928352604080842090915290825290205481565b348015610474575f5ffd5b50610141610483366004611b12565b610fb1565b5f61049282610fee565b92915050565b60605f80546104a690611dd6565b80601f01602080910402602001604051908101604052809291908181526020018280546104d290611dd6565b801561051d5780601f106104f45761010080835404028352916020019161051d565b820191905f5260205f20905b81548152906001019060200180831161050057829003601f168201915b5050505050905090565b5f61053182611012565b505f828152600460205260409020546001600160a01b0316610492565b61055982823361104a565b5050565b6001600160a01b03821661058b57604051633250574960e11b81525f60048201526024015b60405180910390fd5b5f610597838333611057565b9050836001600160a01b0316816001600160a01b0316146105e5576040516364283d7b60e01b81526001600160a01b0380861660048301526024820184905282166044820152606401610582565b50505050565b5f6105f58261077e565b6001600160a01b0316036106425760405162461bcd60e51b8152602060048201526014602482015273151bdad95b88191bd95cc81b9bdd08195e1a5cdd60621b6044820152606401610582565b5f34116106855760405162461bcd60e51b815260206004820152601160248201527004f66666572206d757374206265203e203607c1b6044820152606401610582565b5f818152600c6020908152604080832033808552908352928190203490819055905190815283917fd294afec9d7ab02d1bc3b945a2e833190e9ac8c221c99a27a16afab5cf59e928910160405180910390a350565b5f82815260086020526040812080548291906001600160a01b03811690600160a01b90046001600160601b03168161072d5750506007546001600160a01b03811690600160a01b90046001600160601b03165b5f6127106107446001600160601b03841689611e22565b61074e9190611e39565b9295509193505050505b9250929050565b61077983838360405180602001604052805f815250610e61565b505050565b5f61049282611012565b5f6001600160a01b0382166107b2576040516322718ad960e21b81525f6004820152602401610582565b506001600160a01b03165f9081526003602052604090205490565b6107d5611149565b6107de5f611176565b565b336107ea8461077e565b6001600160a01b0316146108305760405162461bcd60e51b815260206004820152600d60248201526c2737ba1027232a1037bbb732b960991b6044820152606401610582565b6107798383836111c7565b5f818152600c60209081526040808320338452909152902054806108985760405162461bcd60e51b81526020600482015260146024820152734e6f206f6666657220746f20776974686472617760601b6044820152606401610582565b5f828152600c602090815260408083203380855292528083208390555183908381818185875af1925050503d805f81146108ed576040519150601f19603f3d011682016040523d82523d5f602084013e6108f2565b606091505b505090508061093a5760405162461bcd60e51b81526020600482015260146024820152732330b4b632b2103a379039b2b7321022ba3432b960611b6044820152606401610582565b604051339084907fe6f4d8e39c4a3ade2f3812a17eb8f658c1cc293ceee263362516f01750847ac8905f90a3505050565b336109758361077e565b6001600160a01b0316146109cb5760405162461bcd60e51b815260206004820152601960248201527f43616c6c6572206973206e6f7420746f6b656e206f776e6572000000000000006044820152606401610582565b5f828152600c602090815260408083206001600160a01b038516845290915290205480610a3a5760405162461bcd60e51b815260206004820152601a60248201527f4e6f206f666665722066726f6d207468697320616464726573730000000000006044820152606401610582565b5f838152600c602090815260408083206001600160a01b0386168452909152812081905580610a6985846106da565b9092509050828115801590610a8657506001600160a01b03831615155b15610b3157610a958285611e58565b90505f836001600160a01b0316836040515f6040518083038185875af1925050503d805f8114610ae0576040519150601f19603f3d011682016040523d82523d5f602084013e610ae5565b606091505b5050905080610b2f5760405162461bcd60e51b81526020600482015260166024820152754661696c656420746f2073656e6420726f79616c747960501b6044820152606401610582565b505b6040515f90339083908381818185875af1925050503d805f8114610b70576040519150601f19603f3d011682016040523d82523d5f602084013e610b75565b606091505b5050905080610bc65760405162461bcd60e51b815260206004820152601e60248201527f4661696c656420746f2073656e6420457468657220746f2073656c6c657200006044820152606401610582565b610bd1338789611287565b856001600160a01b0316336001600160a01b0316887fc67f49229cab3f614ad390c12432e0e671552dcfd15e24ddc005cf5a01a0213588604051610c1791815260200190565b60405180910390a450505050505050565b600b6020525f9081526040902080548190610c4290611dd6565b80601f0160208091040260200160405190810160405280929190818152602001828054610c6e90611dd6565b8015610cb95780601f10610c9057610100808354040283529160200191610cb9565b820191905f5260205f20905b815481529060010190602001808311610c9c57829003601f168201915b505050600190930154919250506001600160a01b031682565b6060600180546104a690611dd6565b610559338383611334565b600a80546001600160801b03169081905f610d0683611e6b565b91906101000a8154816001600160801b0302191690836001600160801b0316021790555050610d3586826113d2565b610d748184848080601f0160208091040260200160405190810160405280939291908181526020018383808284375f920191909152506113eb92505050565b6040805160606020601f880181900402820181018352918101868152909182919088908890819085018382808284375f9201829052509385525050506001600160a01b038916602092830152838152600b9091526040902081518190610dda9082611ed9565b5060209190910151600190910180546001600160a01b0319166001600160a01b03909216919091179055610e1181876101f46111c7565b856001600160a01b0316817fecb6dd94e13ef705333a26072fa0b91645a45339802be9b0c1caed0a8aae78db87878787604051610e519493929190611fbc565b60405180910390a3505050505050565b610e6c84848461055d565b6105e5338585858561143a565b6060610e8482611012565b505f8281526006602052604081208054610e9d90611dd6565b80601f0160208091040260200160405190810160405280929190818152602001828054610ec990611dd6565b8015610f145780601f10610eeb57610100808354040283529160200191610f14565b820191905f5260205f20905b815481529060010190602001808311610ef757829003601f168201915b505050505090505f610f3060408051602081019091525f815290565b905080515f03610f41575092915050565b815115610f73578082604051602001610f5b929190612004565b60405160208183030381529060405292505050919050565b610f7c84611562565b949350505050565b6001600160a01b039182165f90815260056020908152604080832093909416825291909152205460ff1690565b610fb9611149565b6001600160a01b038116610fe257604051631e4fbdf760e01b81525f6004820152602401610582565b610feb81611176565b50565b5f6001600160e01b0319821663152a902d60e11b14806104925750610492826115d3565b5f818152600260205260408120546001600160a01b03168061049257604051637e27328960e01b815260048101849052602401610582565b61077983838360016115f7565b5f828152600260205260408120546001600160a01b0390811690831615611083576110838184866116fb565b6001600160a01b038116156110bd5761109e5f855f5f6115f7565b6001600160a01b0381165f90815260036020526040902080545f190190555b6001600160a01b038516156110eb576001600160a01b0385165f908152600360205260409020805460010190555b5f8481526002602052604080822080546001600160a01b0319166001600160a01b0389811691821790925591518793918516917fddf252ad1be2c89b69c2b068fc378daa952ba7f163c4a11628f55a4df523b3ef91a4949350505050565b6009546001600160a01b031633146107de5760405163118cdaa760e01b8152336004820152602401610582565b600980546001600160a01b038381166001600160a01b0319831681179093556040519116919082907f8be0079c531659141344cd1fd0a4f28419497f9722a3daafe3b4186f6b6457e0905f90a35050565b6127106001600160601b03821681101561120d5760405163dfd1fc1b60e01b8152600481018590526001600160601b038316602482015260448101829052606401610582565b6001600160a01b03831661123d57604051634b4f842960e11b8152600481018590525f6024820152604401610582565b506040805180820182526001600160a01b0393841681526001600160601b0392831660208083019182525f968752600890529190942093519051909116600160a01b029116179055565b6001600160a01b0382166112b057604051633250574960e11b81525f6004820152602401610582565b5f6112bc83835f611057565b90506001600160a01b0381166112e857604051637e27328960e01b815260048101839052602401610582565b836001600160a01b0316816001600160a01b0316146105e5576040516364283d7b60e01b81526001600160a01b0380861660048301526024820184905282166044820152606401610582565b6001600160a01b03821661136657604051630b61174360e31b81526001600160a01b0383166004820152602401610582565b6001600160a01b038381165f81815260056020908152604080832094871680845294825291829020805460ff191686151590811790915591519182527f17307eab39ab6107e8899845ad3d59bd9653f200f220920489ca2b5937696c31910160405180910390a3505050565b610559828260405180602001604052805f81525061175f565b5f8281526006602052604090206114028282611ed9565b506040518281527ff8e1a15aba9398e019f0b49df1a4fde98ee17ae345cb5f6b5e2c27f5033e8ce79060200160405180910390a15050565b6001600160a01b0383163b1561155b57604051630a85bd0160e11b81526001600160a01b0384169063150b7a029061147c908890889087908790600401612018565b6020604051808303815f875af19250505080156114b6575060408051601f3d908101601f191682019092526114b391810190612054565b60015b61151d573d8080156114e3576040519150601f19603f3d011682016040523d82523d5f602084013e6114e8565b606091505b5080515f0361151557604051633250574960e11b81526001600160a01b0385166004820152602401610582565b805181602001fd5b6001600160e01b03198116630a85bd0160e11b1461155957604051633250574960e11b81526001600160a01b0385166004820152602401610582565b505b5050505050565b606061156d82611012565b505f61158360408051602081019091525f815290565b90505f8151116115a15760405180602001604052805f8152506115cc565b806115ab84611776565b6040516020016115bc929190612004565b6040516020818303038152906040525b9392505050565b5f6001600160e01b03198216632483248360e11b1480610492575061049282611806565b808061160b57506001600160a01b03821615155b156116cc575f61161a84611012565b90506001600160a01b038316158015906116465750826001600160a01b0316816001600160a01b031614155b801561165957506116578184610f84565b155b156116825760405163a9fbf51f60e01b81526001600160a01b0384166004820152602401610582565b81156116ca5783856001600160a01b0316826001600160a01b03167f8c5be1e5ebec7d5bd14f71427d1e84f3dd0314c0f7b2291e5b200ac8c7c3b92560405160405180910390a45b505b50505f90815260046020526040902080546001600160a01b0319166001600160a01b0392909216919091179055565b611706838383611855565b610779576001600160a01b03831661173457604051637e27328960e01b815260048101829052602401610582565b60405163177e802f60e01b81526001600160a01b038316600482015260248101829052604401610582565b61176983836118b6565b610779335f85858561143a565b60605f61178283611917565b60010190505f8167ffffffffffffffff8111156117a1576117a1611cbd565b6040519080825280601f01601f1916602001820160405280156117cb576020820181803683370190505b5090508181016020015b5f19016f181899199a1a9b1b9c1cb0b131b232b360811b600a86061a8153600a85049450846117d557509392505050565b5f6001600160e01b031982166380ac58cd60e01b148061183657506001600160e01b03198216635b5e139f60e01b145b8061049257506301ffc9a760e01b6001600160e01b0319831614610492565b5f6001600160a01b03831615801590610f7c5750826001600160a01b0316846001600160a01b0316148061188e575061188e8484610f84565b80610f7c5750505f908152600460205260409020546001600160a01b03908116911614919050565b6001600160a01b0382166118df57604051633250574960e11b81525f6004820152602401610582565b5f6118eb83835f611057565b90506001600160a01b03811615610779576040516339e3563760e11b81525f6004820152602401610582565b5f8072184f03e93ff9f4daa797ed6e38ed64bf6a1f0160401b83106119555772184f03e93ff9f4daa797ed6e38ed64bf6a1f0160401b830492506040015b6d04ee2d6d415b85acef81000000008310611981576d04ee2d6d415b85acef8100000000830492506020015b662386f26fc10000831061199f57662386f26fc10000830492506010015b6305f5e10083106119b7576305f5e100830492506008015b61271083106119cb57612710830492506004015b606483106119dd576064830492506002015b600a83106104925760010192915050565b6001600160e01b031981168114610feb575f5ffd5b5f60208284031215611a13575f5ffd5b81356115cc816119ee565b5f81518084528060208401602086015e5f602082860101526020601f19601f83011685010191505092915050565b602081525f6115cc6020830184611a1e565b5f60208284031215611a6e575f5ffd5b5035919050565b80356001600160a01b0381168114611a8b575f5ffd5b919050565b5f5f60408385031215611aa1575f5ffd5b611aaa83611a75565b946020939093013593505050565b5f5f5f60608486031215611aca575f5ffd5b611ad384611a75565b9250611ae160208501611a75565b929592945050506040919091013590565b5f5f60408385031215611b03575f5ffd5b50508035926020909101359150565b5f60208284031215611b22575f5ffd5b6115cc82611a75565b5f5f5f60608486031215611b3d575f5ffd5b83359250611b4d60208501611a75565b915060408401356001600160601b0381168114611b68575f5ffd5b809150509250925092565b5f5f60408385031215611b84575f5ffd5b82359150611b9460208401611a75565b90509250929050565b604081525f611baf6040830185611a1e565b905060018060a01b03831660208301529392505050565b5f5f60408385031215611bd7575f5ffd5b611be083611a75565b915060208301358015158114611bf4575f5ffd5b809150509250929050565b5f5f83601f840112611c0f575f5ffd5b50813567ffffffffffffffff811115611c26575f5ffd5b602083019150836020828501011115610758575f5ffd5b5f5f5f5f5f60608688031215611c51575f5ffd5b611c5a86611a75565b9450602086013567ffffffffffffffff811115611c75575f5ffd5b611c8188828901611bff565b909550935050604086013567ffffffffffffffff811115611ca0575f5ffd5b611cac88828901611bff565b969995985093965092949392505050565b634e487b7160e01b5f52604160045260245ffd5b5f5f5f5f60808587031215611ce4575f5ffd5b611ced85611a75565b9350611cfb60208601611a75565b925060408501359150606085013567ffffffffffffffff811115611d1d575f5ffd5b8501601f81018713611d2d575f5ffd5b803567ffffffffffffffff811115611d4757611d47611cbd565b604051601f8201601f19908116603f0116810167ffffffffffffffff81118282101715611d7657611d76611cbd565b604052818152828201602001891015611d8d575f5ffd5b816020840160208301375f6020838301015280935050505092959194509250565b5f5f60408385031215611dbf575f5ffd5b611dc883611a75565b9150611b9460208401611a75565b600181811c90821680611dea57607f821691505b602082108103611e0857634e487b7160e01b5f52602260045260245ffd5b50919050565b634e487b7160e01b5f52601160045260245ffd5b808202811582820484141761049257610492611e0e565b5f82611e5357634e487b7160e01b5f52601260045260245ffd5b500490565b8181038181111561049257610492611e0e565b5f6001600160801b0382166001600160801b038103611e8c57611e8c611e0e565b60010192915050565b601f82111561077957805f5260205f20601f840160051c81016020851015611eba5750805b601f840160051c820191505b8181101561155b575f8155600101611ec6565b815167ffffffffffffffff811115611ef357611ef3611cbd565b611f0781611f018454611dd6565b84611e95565b6020601f821160018114611f39575f8315611f225750848201515b5f19600385901b1c1916600184901b17845561155b565b5f84815260208120601f198516915b82811015611f685787850151825560209485019460019092019101611f48565b5084821015611f8557868401515f19600387901b60f8161c191681555b50505050600190811b01905550565b81835281816020850137505f828201602090810191909152601f909101601f19169091010190565b604081525f611fcf604083018688611f94565b8281036020840152611fe2818587611f94565b979650505050505050565b5f81518060208401855e5f93019283525090919050565b5f610f7c6120128386611fed565b84611fed565b6001600160a01b03858116825284166020820152604081018390526080606082018190525f9061204a90830184611a1e565b9695505050505050565b5f60208284031215612064575f5ffd5b81516115cc816119ee56fea2646970667358221220afba6038ba5161319554b2e96ce4128f366c3c876f998e01530faeb9784c2ff064736f6c634300081c0033","linkReferences":{}},"methodIdentifiers":{"acceptOffer(uint256,address)":"918d407d","approve(address,uint256)":"095ea7b3","balanceOf(address)":"70a08231","getApproved(uint256)":"081812fc","ideas(uint256)":"95b53837","isApprovedForAll(address,address)":"e985e9c5","mintIdea(address,string,string)":"ac50dad8","name()":"06fdde03","offers(uint256,address)":"ebdfbce5","owner()":"8da5cb5b","ownerOf(uint256)":"6352211e","placeOffer(uint256)":"2474659a","renounceOwnership()":"715018a6","royaltyInfo(uint256,uint256)":"2a55205a","safeTransferFrom(address,address,uint256)":"42842e0e","safeTransferFrom(address,address,uint256,bytes)":"b88d4fde","setApprovalForAll(address,bool)":"a22cb465","setRoyalty(uint256,address,uint96)":"80c8d690","supportsInterface(bytes4)":"01ffc9a7","symbol()":"95d89b41","tokenURI(uint256)":"c87b56dd","transferFrom(address,address,uint256)":"23b872dd","transferOwnership(address)":"f2fde38b","withdrawOffer(uint256)":"8610f045"},"id":21}