{"abi":[{"type":"constructor","inputs":[],"stateMutability":"nonpayable"},{"type":"fallback","stateMutability":"payable"},{"type":"receive","stateMutability":"payable"},{"type":"function","name":"acceptOffer","inputs":[{"name":"tokenId","type":"uint256","internalType":"uint256"},{"name":"offeror","type":"address","internalType":"address"}],"outputs":[],"stateMutability":"nonpayable"},{"type":"function","name":"approve","inputs":[{"name":"to","type":"address","internalType":"address"},{"name":"tokenId","type":"uint256","internalType":"uint256"}],"outputs":[],"stateMutability":"nonpayable"},{"type":"function","name":"balanceOf","inputs":[{"name":"owner","type":"address","internalType":"address"}],"outputs":[{"name":"","type":"uint256","internalType":"uint256"}],"stateMutability":"view"},{"type":"function","name":"getApproved","inputs":[{"name":"tokenId","type":"uint256","internalType":"uint256"}],"outputs":[{"name":"","type":"address","internalType":"address"}],"stateMutability":"view"},{"type":"function","name":"getScores","inputs":[{"name":"tokenId","type":"uint256","internalType":"uint256"}],"outputs":[{"name":"originality","type":"uint8","internalType":"uint8"},{"name":"feasibility","type":"uint8","internalType":"uint8"},{"name":"marketDemand","type":"uint8","internalType":"uint8"},{"name":"complexity","type":"uint8","internalType":"uint8"},{"name":"completeness","type":"uint8","internalType":"uint8"}],"stateMutability":"view"},{"type":"function","name":"isApprovedForAll","inputs":[{"name":"owner","type":"address","internalType":"address"},{"name":"operator","type":"address","internalType":"address"}],"outputs":[{"name":"","type":"bool","internalType":"bool"}],"stateMutability":"view"},{"type":"function","name":"mintIdea","inputs":[{"name":"to","type":"address","internalType":"address"},{"name":"tokenURI_","type":"string","internalType":"string"},{"name":"_ideaScores","type":"tuple","internalType":"struct IdeaMarketplace.Score","components":[{"name":"originality","type":"uint8","internalType":"uint8"},{"name":"feasibility","type":"uint8","internalType":"uint8"},{"name":"marketDemand","type":"uint8","internalType":"uint8"},{"name":"complexity","type":"uint8","internalType":"uint8"},{"name":"completeness","type":"uint8","internalType":"uint8"}]}],"outputs":[],"stateMutability":"nonpayable"},{"type":"function","name":"name","inputs":[],"outputs":[{"name":"","type":"string","internalType":"string"}],"stateMutability":"view"},{"type":"function","name":"offers","inputs":[{"name":"","type":"uint256","internalType":"uint256"},{"name":"","type":"address","internalType":"address"}],"outputs":[{"name":"","type":"uint256","internalType":"uint256"}],"stateMutability":"view"},{"type":"function","name":"owner","inputs":[],"outputs":[{"name":"","type":"address","internalType":"address"}],"stateMutability":"view"},{"type":"function","name":"ownerOf","inputs":[{"name":"tokenId","type":"uint256","internalType":"uint256"}],"outputs":[{"name":"","type":"address","internalType":"address"}],"stateMutability":"view"},{"type":"function","name":"placeOffer","inputs":[{"name":"tokenId","type":"uint256","internalType":"uint256"}],"outputs":[],"stateMutability":"payable"},{"type":"function","name":"renounceOwnership","inputs":[],"outputs":[],"stateMutability":"nonpayable"},{"type":"function","name":"royaltyInfo","inputs":[{"name":"tokenId","type":"uint256","internalType":"uint256"},{"name":"salePrice","type":"uint256","internalType":"uint256"}],"outputs":[{"name":"receiver","type":"address","internalType":"address"},{"name":"amount","type":"uint256","internalType":"uint256"}],"stateMutability":"view"},{"type":"function","name":"safeTransferFrom","inputs":[{"name":"from","type":"address","internalType":"address"},{"name":"to","type":"address","internalType":"address"},{"name":"tokenId","type":"uint256","internalType":"uint256"}],"outputs":[],"stateMutability":"nonpayable"},{"type":"function","name":"safeTransferFrom","inputs":[{"name":"from","type":"address","internalType":"address"},{"name":"to","type":"address","internalType":"address"},{"name":"tokenId","type":"uint256","internalType":"uint256"},{"name":"data","type":"bytes","internalType":"bytes"}],"outputs":[],"stateMutability":"nonpayable"},{"type":"function","name":"setApprovalForAll","inputs":[{"name":"operator","type":"address","internalType":"address"},{"name":"approved","type":"bool","internalType":"bool"}],"outputs":[],"stateMutability":"nonpayable"},{"type":"function","name":"setRoyalty","inputs":[{"name":"tokenId","type":"uint256","internalType":"uint256"},{"name":"receiver","type":"address","internalType":"address"},{"name":"feeNumerator","type":"uint96","internalType":"uint96"}],"outputs":[],"stateMutability":"nonpayable"},{"type":"function","name":"supportsInterface","inputs":[{"name":"interfaceId","type":"bytes4","internalType":"bytes4"}],"outputs":[{"name":"","type":"bool","internalType":"bool"}],"stateMutability":"view"},{"type":"function","name":"symbol","inputs":[],"outputs":[{"name":"","type":"string","internalType":"string"}],"stateMutability":"view"},{"type":"function","name":"tokenURI","inputs":[{"name":"tokenId","type":"uint256","internalType":"uint256"}],"outputs":[{"name":"","type":"string","internalType":"string"}],"stateMutability":"view"},{"type":"function","name":"transferFrom","inputs":[{"name":"from","type":"address","internalType":"address"},{"name":"to","type":"address","internalType":"address"},{"name":"tokenId","type":"uint256","internalType":"uint256"}],"outputs":[],"stateMutability":"nonpayable"},{"type":"function","name":"transferOwnership","inputs":[{"name":"newOwner","type":"address","internalType":"address"}],"outputs":[],"stateMutability":"nonpayable"},{"type":"function","name":"withdrawOffer","inputs":[{"name":"tokenId","type":"uint256","internalType":"uint256"}],"outputs":[],"stateMutability":"nonpayable"},{"type":"event","name":"Approval","inputs":[{"name":"owner","type":"address","indexed":true,"internalType":"address"},{"name":"approved","type":"address","indexed":true,"internalType":"address"},{"name":"tokenId","type":"uint256","indexed":true,"internalType":"uint256"}],"anonymous":false},{"type":"event","name":"ApprovalForAll","inputs":[{"name":"owner","type":"address","indexed":true,"internalType":"address"},{"name":"operator","type":"address","indexed":true,"internalType":"address"},{"name":"approved","type":"bool","indexed":false,"internalType":"bool"}],"anonymous":false},{"type":"event","name":"BatchMetadataUpdate","inputs":[{"name":"_fromTokenId","type":"uint256","indexed":false,"internalType":"uint256"},{"name":"_toTokenId","type":"uint256","indexed":false,"internalType":"uint256"}],"anonymous":false},{"type":"event","name":"IdeaMinted","inputs":[{"name":"tokenId","type":"uint256","indexed":true,"internalType":"uint256"},{"name":"creator","type":"address","indexed":true,"internalType":"address"},{"name":"metadataURI","type":"string","indexed":false,"internalType":"string"}],"anonymous":false},{"type":"event","name":"MetadataUpdate","inputs":[{"name":"_tokenId","type":"uint256","indexed":false,"internalType":"uint256"}],"anonymous":false},{"type":"event","name":"OfferAccepted","inputs":[{"name":"tokenId","type":"uint256","indexed":true,"internalType":"uint256"},{"name":"seller","type":"address","indexed":true,"internalType":"address"},{"name":"buyer","type":"address","indexed":true,"internalType":"address"},{"name":"salePrice","type":"uint256","indexed":false,"internalType":"uint256"}],"anonymous":false},{"type":"event","name":"OfferPlaced","inputs":[{"name":"tokenId","type":"uint256","indexed":true,"internalType":"uint256"},{"name":"offeror","type":"address","indexed":true,"internalType":"address"},{"name":"amount","type":"uint256","indexed":false,"internalType":"uint256"}],"anonymous":false},{"type":"event","name":"OfferWithdrawn","inputs":[{"name":"tokenId","type":"uint256","indexed":true,"internalType":"uint256"},{"name":"offeror","type":"address","indexed":true,"internalType":"address"}],"anonymous":false},{"type":"event","name":"OwnershipTransferred","inputs":[{"name":"previousOwner","type":"address","indexed":true,"internalType":"address"},{"name":"newOwner","type":"address","indexed":true,"internalType":"address"}],"anonymous":false},{"type":"event","name":"ScoresSet","inputs":[{"name":"tokenId","type":"uint256","indexed":true,"internalType":"uint256"},{"name":"originality","type":"uint8","indexed":false,"internalType":"uint8"},{"name":"feasibility","type":"uint8","indexed":false,"internalType":"uint8"},{"name":"marketDemand","type":"uint8","indexed":false,"internalType":"uint8"},{"name":"complexity","type":"uint8","indexed":false,"internalType":"uint8"},{"name":"completeness","type":"uint8","indexed":false,"internalType":"uint8"}],"anonymous":false},{"type":"event","name":"Transfer","inputs":[{"name":"from","type":"address","indexed":true,"internalType":"address"},{"name":"to","type":"address","indexed":true,"internalType":"address"},{"name":"tokenId","type":"uint256","indexed":true,"internalType":"uint256"}],"anonymous":false},{"type":"error","name":"ERC2981InvalidDefaultRoyalty","inputs":[{"name":"numerator","type":"uint256","internalType":"uint256"},{"name":"denominator","type":"uint256","internalType":"uint256"}]},{"type":"error","name":"ERC2981InvalidDefaultRoyaltyReceiver","inputs":[{"name":"receiver","type":"address","internalType":"address"}]},{"type":"error","name":"ERC2981InvalidTokenRoyalty","inputs":[{"name":"tokenId","type":"uint256","internalType":"uint256"},{"name":"numerator","type":"uint256","internalType":"uint256"},{"name":"denominator","type":"uint256","internalType":"uint256"}]},{"type":"error","name":"ERC2981InvalidTokenRoyaltyReceiver","inputs":[{"name":"tokenId","type":"uint256","internalType":"uint256"},{"name":"receiver","type":"address","internalType":"address"}]},{"type":"error","name":"ERC721IncorrectOwner","inputs":[{"name":"sender","type":"address","internalType":"address"},{"name":"tokenId","type":"uint256","internalType":"uint256"},{"name":"owner","type":"address","internalType":"address"}]},{"type":"error","name":"ERC721InsufficientApproval","inputs":[{"name":"operator","type":"address","internalType":"address"},{"name":"tokenId","type":"uint256","internalType":"uint256"}]},{"type":"error","name":"ERC721InvalidApprover","inputs":[{"name":"approver","type":"address","internalType":"address"}]},{"type":"error","name":"ERC721InvalidOperator","inputs":[{"name":"operator","type":"address","internalType":"address"}]},{"type":"error","name":"ERC721InvalidOwner","inputs":[{"name":"owner","type":"address","internalType":"address"}]},{"type":"error","name":"ERC721InvalidReceiver","inputs":[{"name":"receiver","type":"address","internalType":"address"}]},{"type":"error","name":"ERC721InvalidSender","inputs":[{"name":"sender","type":"address","internalType":"address"}]},{"type":"error","name":"ERC721NonexistentToken","inputs":[{"name":"tokenId","type":"uint256","internalType":"uint256"}]},{"type":"error","name":"OwnableInvalidOwner","inputs":[{"name":"owner","type":"address","internalType":"address"}]},{"type":"error","name":"OwnableUnauthorizedAccount","inputs":[{"name":"account","type":"address","internalType":"address"}]}],"bytecode":{"object":"0x608060405234801561000f575f5ffd5b5033604051806040016040528060078152602001661259195853919560ca1b815250604051806040016040528060048152602001634944454160e01b815250815f908161005c9190610191565b5060016100698282610191565b5050506001600160a01b03811661009957604051631e4fbdf760e01b81525f600482015260240160405180910390fd5b6100a2816100a8565b5061024b565b600980546001600160a01b038381166001600160a01b0319831681179093556040519116919082907f8be0079c531659141344cd1fd0a4f28419497f9722a3daafe3b4186f6b6457e0905f90a35050565b634e487b7160e01b5f52604160045260245ffd5b600181811c9082168061012157607f821691505b60208210810361013f57634e487b7160e01b5f52602260045260245ffd5b50919050565b601f82111561018c57805f5260205f20601f840160051c8101602085101561016a5750805b601f840160051c820191505b81811015610189575f8155600101610176565b50505b505050565b81516001600160401b038111156101aa576101aa6100f9565b6101be816101b8845461010d565b84610145565b6020601f8211600181146101f0575f83156101d95750848201515b5f19600385901b1c1916600184901b178455610189565b5f84815260208120601f198516915b8281101561021f57878501518255602094850194600190920191016101ff565b508482101561023c57868401515f19600387901b60f8161c191681555b50505050600190811b01905550565b61235c806102585f395ff3fe608060405260043610610141575f3560e01c806380c8d690116100af578063b88d4fde1161006b578063b88d4fde14610441578063c87b56dd14610460578063e985e9c51461047f578063ebdfbce51461049e578063f2fde38b146104d4578063f3eca608146104f357005b806380c8d690146103945780638610f045146103b35780638da5cb5b146103d2578063918d407d146103ef57806395d89b411461040e578063a22cb4651461042257005b80632474659a116100fe5780632474659a146102c45780632a55205a146102d757806342842e0e146103155780636352211e1461033457806370a0823114610353578063715018a61461038057005b806301ffc9a71461014357806304527d901461017757806306fdde031461022e578063081812fc1461024f578063095ea7b31461028657806323b872dd146102a5575b005b34801561014e575f5ffd5b5061016261015d366004611d14565b610512565b60405190151581526020015b60405180910390f35b348015610182575f5ffd5b506101fa610191366004611d2f565b5f818152600c6020908152604091829020825160a081018452905460ff8082168084526101008304821694840185905262010000830482169584018690526301000000830482166060850181905264010000000090930490911660809093018390529590929450565b6040805160ff968716815294861660208601529285169284019290925283166060830152909116608082015260a00161016e565b348015610239575f5ffd5b50610242610522565b60405161016e9190611d74565b34801561025a575f5ffd5b5061026e610269366004611d2f565b6105b1565b6040516001600160a01b03909116815260200161016e565b348015610291575f5ffd5b506101416102a0366004611da1565b6105d8565b3480156102b0575f5ffd5b506101416102bf366004611dc9565b6105e7565b6101416102d2366004611d2f565b610675565b3480156102e2575f5ffd5b506102f66102f1366004611e03565b6107c4565b604080516001600160a01b03909316835260208301919091520161016e565b348015610320575f5ffd5b5061014161032f366004611dc9565b610847565b34801561033f575f5ffd5b5061026e61034e366004611d2f565b610866565b34801561035e575f5ffd5b5061037261036d366004611e23565b610870565b60405190815260200161016e565b34801561038b575f5ffd5b506101416108b5565b34801561039f575f5ffd5b506101416103ae366004611e3c565b6108c8565b3480156103be575f5ffd5b506101416103cd366004611d2f565b610923565b3480156103dd575f5ffd5b506009546001600160a01b031661026e565b3480156103fa575f5ffd5b50610141610409366004611e84565b610a53565b348015610419575f5ffd5b50610242610d10565b34801561042d575f5ffd5b5061014161043c366004611eae565b610d1f565b34801561044c575f5ffd5b5061014161045b366004611efb565b610d2a565b34801561046b575f5ffd5b5061024261047a366004611d2f565b610d42565b34801561048a575f5ffd5b50610162610499366004611fd8565b610e4d565b3480156104a9575f5ffd5b506103726104b8366004611e84565b600b60209081525f928352604080842090915290825290205481565b3480156104df575f5ffd5b506101416104ee366004611e23565b610e7a565b3480156104fe575f5ffd5b5061014161050d366004612000565b610eb7565b5f61051c82610fec565b92915050565b60605f805461053090612098565b80601f016020809104026020016040519081016040528092919081815260200182805461055c90612098565b80156105a75780601f1061057e576101008083540402835291602001916105a7565b820191905f5260205f20905b81548152906001019060200180831161058a57829003601f168201915b5050505050905090565b5f6105bb82611010565b505f828152600460205260409020546001600160a01b031661051c565b6105e3828233611048565b5050565b6001600160a01b03821661061557604051633250574960e11b81525f60048201526024015b60405180910390fd5b5f610621838333611055565b9050836001600160a01b0316816001600160a01b03161461066f576040516364283d7b60e01b81526001600160a01b038086166004830152602482018490528216604482015260640161060c565b50505050565b5f61067f82610866565b6001600160a01b0316036106cc5760405162461bcd60e51b8152602060048201526014602482015273151bdad95b88191bd95cc81b9bdd08195e1a5cdd60621b604482015260640161060c565b5f341161070f5760405162461bcd60e51b815260206004820152601160248201527004f66666572206d757374206265203e203607c1b604482015260640161060c565b61071881610866565b6001600160a01b0316330361076f5760405162461bcd60e51b815260206004820152601960248201527f43616e6e6f74206f66666572206f6e206f776e20746f6b656e00000000000000604482015260640161060c565b5f818152600b6020908152604080832033808552908352928190203490819055905190815283917fd294afec9d7ab02d1bc3b945a2e833190e9ac8c221c99a27a16afab5cf59e928910160405180910390a350565b5f82815260086020526040812080548291906001600160a01b03811690600160a01b90046001600160601b0316816108175750506007546001600160a01b03811690600160a01b90046001600160601b03165b5f61271061082e6001600160601b038416896120e4565b61083891906120fb565b92989297509195505050505050565b61086183838360405180602001604052805f815250610d2a565b505050565b5f61051c82611010565b5f6001600160a01b03821661089a576040516322718ad960e21b81525f600482015260240161060c565b506001600160a01b03165f9081526003602052604090205490565b6108bd611147565b6108c65f611174565b565b336108d284610866565b6001600160a01b0316146109185760405162461bcd60e51b815260206004820152600d60248201526c2737ba1027232a1037bbb732b960991b604482015260640161060c565b6108618383836111c5565b5f818152600b60209081526040808320338452909152902054806109805760405162461bcd60e51b81526020600482015260146024820152734e6f206f6666657220746f20776974686472617760601b604482015260640161060c565b5f828152600b602090815260408083203380855292528083208390555183908381818185875af1925050503d805f81146109d5576040519150601f19603f3d011682016040523d82523d5f602084013e6109da565b606091505b5050905080610a225760405162461bcd60e51b81526020600482015260146024820152732330b4b632b2103a379039b2b7321022ba3432b960611b604482015260640161060c565b604051339084907fe6f4d8e39c4a3ade2f3812a17eb8f658c1cc293ceee263362516f01750847ac8905f90a3505050565b33610a5d83610866565b6001600160a01b031614610ab35760405162461bcd60e51b815260206004820152601960248201527f43616c6c6572206973206e6f7420746f6b656e206f776e657200000000000000604482015260640161060c565b5f828152600b602090815260408083206001600160a01b038516845290915290205480610b225760405162461bcd60e51b815260206004820152601a60248201527f4e6f206f666665722066726f6d20746869732061646472657373000000000000604482015260640161060c565b5f838152600b602090815260408083206001600160a01b0386168452909152812081905580610b5185846107c4565b9092509050828115801590610b6e57506001600160a01b03831615155b15610c1957610b7d828561211a565b90505f836001600160a01b0316836040515f6040518083038185875af1925050503d805f8114610bc8576040519150601f19603f3d011682016040523d82523d5f602084013e610bcd565b606091505b5050905080610c175760405162461bcd60e51b81526020600482015260166024820152754661696c656420746f2073656e6420726f79616c747960501b604482015260640161060c565b505b6040515f90339083908381818185875af1925050503d805f8114610c58576040519150601f19603f3d011682016040523d82523d5f602084013e610c5d565b606091505b5050905080610cae5760405162461bcd60e51b815260206004820152601e60248201527f4661696c656420746f2073656e6420457468657220746f2073656c6c65720000604482015260640161060c565b610cb9338789611285565b856001600160a01b0316336001600160a01b0316887fc67f49229cab3f614ad390c12432e0e671552dcfd15e24ddc005cf5a01a0213588604051610cff91815260200190565b60405180910390a450505050505050565b60606001805461053090612098565b6105e3338383611332565b610d358484846105e7565b61066f33858585856113d0565b6060610d4d82611010565b505f8281526006602052604081208054610d6690612098565b80601f0160208091040260200160405190810160405280929190818152602001828054610d9290612098565b8015610ddd5780601f10610db457610100808354040283529160200191610ddd565b820191905f5260205f20905b815481529060010190602001808311610dc057829003601f168201915b505050505090505f610df960408051602081019091525f815290565b905080515f03610e0a575092915050565b815115610e3c578082604051602001610e24929190612144565b60405160208183030381529060405292505050919050565b610e45846114f8565b949350505050565b6001600160a01b039182165f90815260056020908152604080832093909416825291909152205460ff1690565b610e82611147565b6001600160a01b038116610eab57604051631e4fbdf760e01b81525f600482015260240161060c565b610eb481611174565b50565b600a80546001600160801b03169081905f610ed183612158565b91906101000a8154816001600160801b0302191690836001600160801b0316021790555050610f008582611569565b610f3f8185858080601f0160208091040260200160405190810160405280939291908181526020018383808284375f9201919091525061158292505050565b610f4b818660326111c5565b610fa181610f5c6020850185612182565b610f6c6040860160208701612182565b610f7c6060870160408801612182565b610f8c6080880160608901612182565b610f9c60a0890160808a01612182565b6115d1565b846001600160a01b0316817f546a1f9ba985f54e9d70cf97c906e62398d5447a75217d819da0adff77f2cbda8686604051610fdd9291906121a2565b60405180910390a35050505050565b5f6001600160e01b0319821663152a902d60e11b148061051c575061051c826118e4565b5f818152600260205260408120546001600160a01b03168061051c57604051637e27328960e01b81526004810184905260240161060c565b6108618383836001611908565b5f828152600260205260408120546001600160a01b039081169083161561108157611081818486611a0c565b6001600160a01b038116156110bb5761109c5f855f5f611908565b6001600160a01b0381165f90815260036020526040902080545f190190555b6001600160a01b038516156110e9576001600160a01b0385165f908152600360205260409020805460010190555b5f8481526002602052604080822080546001600160a01b0319166001600160a01b0389811691821790925591518793918516917fddf252ad1be2c89b69c2b068fc378daa952ba7f163c4a11628f55a4df523b3ef91a4949350505050565b6009546001600160a01b031633146108c65760405163118cdaa760e01b815233600482015260240161060c565b600980546001600160a01b038381166001600160a01b0319831681179093556040519116919082907f8be0079c531659141344cd1fd0a4f28419497f9722a3daafe3b4186f6b6457e0905f90a35050565b6127106001600160601b03821681101561120b5760405163dfd1fc1b60e01b8152600481018590526001600160601b03831660248201526044810182905260640161060c565b6001600160a01b03831661123b57604051634b4f842960e11b8152600481018590525f602482015260440161060c565b506040805180820182526001600160a01b0393841681526001600160601b0392831660208083019182525f968752600890529190942093519051909116600160a01b029116179055565b6001600160a01b0382166112ae57604051633250574960e11b81525f600482015260240161060c565b5f6112ba83835f611055565b90506001600160a01b0381166112e657604051637e27328960e01b81526004810183905260240161060c565b836001600160a01b0316816001600160a01b03161461066f576040516364283d7b60e01b81526001600160a01b038086166004830152602482018490528216604482015260640161060c565b6001600160a01b03821661136457604051630b61174360e31b81526001600160a01b038316600482015260240161060c565b6001600160a01b038381165f81815260056020908152604080832094871680845294825291829020805460ff191686151590811790915591519182527f17307eab39ab6107e8899845ad3d59bd9653f200f220920489ca2b5937696c31910160405180910390a3505050565b6001600160a01b0383163b156114f157604051630a85bd0160e11b81526001600160a01b0384169063150b7a02906114129088908890879087906004016121d0565b6020604051808303815f875af192505050801561144c575060408051601f3d908101601f191682019092526114499181019061220c565b60015b6114b3573d808015611479576040519150601f19603f3d011682016040523d82523d5f602084013e61147e565b606091505b5080515f036114ab57604051633250574960e11b81526001600160a01b038516600482015260240161060c565b805181602001fd5b6001600160e01b03198116630a85bd0160e11b146114ef57604051633250574960e11b81526001600160a01b038516600482015260240161060c565b505b5050505050565b606061150382611010565b505f61151960408051602081019091525f815290565b90505f8151116115375760405180602001604052805f815250611562565b8061154184611a70565b604051602001611552929190612144565b6040516020818303038152906040525b9392505050565b6105e3828260405180602001604052805f815250611b00565b5f828152600660205260409020611599828261226b565b506040518281527ff8e1a15aba9398e019f0b49df1a4fde98ee17ae345cb5f6b5e2c27f5033e8ce79060200160405180910390a15050565b60018560ff16101580156115e95750600a8560ff1611155b6116355760405162461bcd60e51b815260206004820152601860248201527f4f726967696e616c697479206f7574206f662072616e67650000000000000000604482015260640161060c565b60018460ff161015801561164d5750600a8460ff1611155b6116995760405162461bcd60e51b815260206004820152601860248201527f466561736962696c697479206f7574206f662072616e67650000000000000000604482015260640161060c565b60018360ff16101580156116b15750600a8360ff1611155b6116fd5760405162461bcd60e51b815260206004820152601a60248201527f4d61726b65742044656d616e64206f7574206f662072616e6765000000000000604482015260640161060c565b60018260ff16101580156117155750600a8260ff1611155b6117615760405162461bcd60e51b815260206004820152601760248201527f436f6d706c6578697479206f7574206f662072616e6765000000000000000000604482015260640161060c565b60018160ff16101580156117795750600a8160ff1611155b6117c55760405162461bcd60e51b815260206004820152601960248201527f436f6d706c6574656e657373206f7574206f662072616e676500000000000000604482015260640161060c565b6040805160a08101825260ff8088168252868116602080840191825287831684860190815287841660608601908152878516608087019081525f8e8152600c9094529287902095518654945192519151935186166401000000000264ff000000001994871663010000000263ff0000001993881662010000029390931663ffff0000199488166101000261ffff19909716929097169190911794909417919091169390931792909217919091161790555186907f1f9041ad893988cdaf044cf66ce59a5b5812706d0057f5842f6813fec66dadfc906118d4908890889088908890889060ff95861681529385166020850152918416604084015283166060830152909116608082015260a00190565b60405180910390a2505050505050565b5f6001600160e01b03198216632483248360e11b148061051c575061051c82611b17565b808061191c57506001600160a01b03821615155b156119dd575f61192b84611010565b90506001600160a01b038316158015906119575750826001600160a01b0316816001600160a01b031614155b801561196a57506119688184610e4d565b155b156119935760405163a9fbf51f60e01b81526001600160a01b038416600482015260240161060c565b81156119db5783856001600160a01b0316826001600160a01b03167f8c5be1e5ebec7d5bd14f71427d1e84f3dd0314c0f7b2291e5b200ac8c7c3b92560405160405180910390a45b505b50505f90815260046020526040902080546001600160a01b0319166001600160a01b0392909216919091179055565b611a17838383611b66565b610861576001600160a01b038316611a4557604051637e27328960e01b81526004810182905260240161060c565b60405163177e802f60e01b81526001600160a01b03831660048201526024810182905260440161060c565b60605f611a7c83611bc7565b60010190505f8167ffffffffffffffff811115611a9b57611a9b611ee7565b6040519080825280601f01601f191660200182016040528015611ac5576020820181803683370190505b5090508181016020015b5f19016f181899199a1a9b1b9c1cb0b131b232b360811b600a86061a8153600a8504945084611acf57509392505050565b611b0a8383611c9e565b610861335f8585856113d0565b5f6001600160e01b031982166380ac58cd60e01b1480611b4757506001600160e01b03198216635b5e139f60e01b145b8061051c57506301ffc9a760e01b6001600160e01b031983161461051c565b5f6001600160a01b03831615801590610e455750826001600160a01b0316846001600160a01b03161480611b9f5750611b9f8484610e4d565b80610e455750505f908152600460205260409020546001600160a01b03908116911614919050565b5f8072184f03e93ff9f4daa797ed6e38ed64bf6a1f0160401b8310611c055772184f03e93ff9f4daa797ed6e38ed64bf6a1f0160401b830492506040015b6d04ee2d6d415b85acef81000000008310611c31576d04ee2d6d415b85acef8100000000830492506020015b662386f26fc100008310611c4f57662386f26fc10000830492506010015b6305f5e1008310611c67576305f5e100830492506008015b6127108310611c7b57612710830492506004015b60648310611c8d576064830492506002015b600a831061051c5760010192915050565b6001600160a01b038216611cc757604051633250574960e11b81525f600482015260240161060c565b5f611cd383835f611055565b90506001600160a01b03811615610861576040516339e3563760e11b81525f600482015260240161060c565b6001600160e01b031981168114610eb4575f5ffd5b5f60208284031215611d24575f5ffd5b813561156281611cff565b5f60208284031215611d3f575f5ffd5b5035919050565b5f81518084528060208401602086015e5f602082860101526020601f19601f83011685010191505092915050565b602081525f6115626020830184611d46565b80356001600160a01b0381168114611d9c575f5ffd5b919050565b5f5f60408385031215611db2575f5ffd5b611dbb83611d86565b946020939093013593505050565b5f5f5f60608486031215611ddb575f5ffd5b611de484611d86565b9250611df260208501611d86565b929592945050506040919091013590565b5f5f60408385031215611e14575f5ffd5b50508035926020909101359150565b5f60208284031215611e33575f5ffd5b61156282611d86565b5f5f5f60608486031215611e4e575f5ffd5b83359250611e5e60208501611d86565b915060408401356001600160601b0381168114611e79575f5ffd5b809150509250925092565b5f5f60408385031215611e95575f5ffd5b82359150611ea560208401611d86565b90509250929050565b5f5f60408385031215611ebf575f5ffd5b611ec883611d86565b915060208301358015158114611edc575f5ffd5b809150509250929050565b634e487b7160e01b5f52604160045260245ffd5b5f5f5f5f60808587031215611f0e575f5ffd5b611f1785611d86565b9350611f2560208601611d86565b925060408501359150606085013567ffffffffffffffff811115611f47575f5ffd5b8501601f81018713611f57575f5ffd5b803567ffffffffffffffff811115611f7157611f71611ee7565b604051601f8201601f19908116603f0116810167ffffffffffffffff81118282101715611fa057611fa0611ee7565b604052818152828201602001891015611fb7575f5ffd5b816020840160208301375f6020838301015280935050505092959194509250565b5f5f60408385031215611fe9575f5ffd5b611ff283611d86565b9150611ea560208401611d86565b5f5f5f5f84860360e0811215612014575f5ffd5b61201d86611d86565b9450602086013567ffffffffffffffff811115612038575f5ffd5b8601601f81018813612048575f5ffd5b803567ffffffffffffffff81111561205e575f5ffd5b88602082840101111561206f575f5ffd5b6020919091019450925060a0603f198201121561208a575f5ffd5b509295919450926040019150565b600181811c908216806120ac57607f821691505b6020821081036120ca57634e487b7160e01b5f52602260045260245ffd5b50919050565b634e487b7160e01b5f52601160045260245ffd5b808202811582820484141761051c5761051c6120d0565b5f8261211557634e487b7160e01b5f52601260045260245ffd5b500490565b8181038181111561051c5761051c6120d0565b5f81518060208401855e5f93019283525090919050565b5f610e45612152838661212d565b8461212d565b5f6001600160801b0382166001600160801b038103612179576121796120d0565b60010192915050565b5f60208284031215612192575f5ffd5b813560ff81168114611562575f5ffd5b60208152816020820152818360408301375f818301604090810191909152601f909201601f19160101919050565b6001600160a01b03858116825284166020820152604081018390526080606082018190525f9061220290830184611d46565b9695505050505050565b5f6020828403121561221c575f5ffd5b815161156281611cff565b601f82111561086157805f5260205f20601f840160051c8101602085101561224c5750805b601f840160051c820191505b818110156114f1575f8155600101612258565b815167ffffffffffffffff81111561228557612285611ee7565b612299816122938454612098565b84612227565b6020601f8211600181146122cb575f83156122b45750848201515b5f19600385901b1c1916600184901b1784556114f1565b5f84815260208120601f198516915b828110156122fa57878501518255602094850194600190920191016122da565b508482101561231757868401515f19600387901b60f8161c191681555b50505050600190811b0190555056fea2646970667358221220cd5da3e7c23e78c35f4d4fc4994e94233542af452bb5bb1160ad60f0ef240e1764736f6c634300081c0033","linkReferences":{}},"methodIdentifiers":{"acceptOffer(uint256,address)":"918d407d","approve(address,uint256)":"095ea7b3","balanceOf(address)":"70a08231","getApproved(uint256)":"081812fc","getScores(uint256)":"04527d90","isApprovedForAll(address,address)":"e985e9c5","mintIdea(address,string,(uint8,uint8,uint8,uint8,uint8))":"f3eca608","name()":"06fdde03","offers(uint256,address)":"ebdfbce5","owner()":"8da5cb5b","ownerOf(uint256)":"6352211e","placeOffer(uint256)":"2474659a","renounceOwnership()":"715018a6","royaltyInfo(uint256,uint256)":"2a55205a","safeTransferFrom(address,address,uint256)":"42842e0e","safeTransferFrom(address,address,uint256,bytes)":"b88d4fde","setApprovalForAll(address,bool)":"a22cb465","setRoyalty(uint256,address,uint96)":"80c8d690","supportsInterface(bytes4)":"01ffc9a7","symbol()":"95d89b41","tokenURI(uint256)":"c87b56dd","transferFrom(address,address,uint256)":"23b872dd","transferOwnership(address)":"f2fde38b","withdrawOffer(uint256)":"8610f045"},"id":21}